:100000000C9435000C945D000C945D000C945D0024
:100010000C945D000C94DC020C945D000C945D006B
:100020000C945D000C945D000C945D000C945D00DC
:100030000C945D000C945D000C945D000C945D00CC
:100040000C94ED010C945D000C945D000C945D002B
:100050000C945D000C945D000C945D000C945D00AC
:100060000C945D000C945D00FC0411241FBECFEFC6
:10007000D8E0DEBFCDBF11E0A0E0B1E0ECE7F3E1F6
:1000800002C005900D92A234B107D9F722E0A2E494
:10009000B1E001C01D92A130B207E1F710E0C5E365
:1000A000D0E004C02197FE010E940905C433D107A6
:1000B000C9F70E94EB020C94BC090C94000008954F
:1000C0000F931F93CF93DF93EB01182F092F40E27B
:1000D00050E070E060E081EE91E00E94D4060F9362
:1000E0001F93DF93CF9380E091E09F938F9381EEF6
:1000F00091E09F938F930E94E4068DB79EB7089678
:100100000FB6F8949EBF0FBE8DBF81EE91E0DF91D8
:10011000CF911F910F9108950F931F93CF93DF936A
:10012000EB01182F092F40E250E070E060E081EC15
:1001300091E00E94D4060F931F93DF93CF938CE03E
:1001400091E09F938F9381EC91E09F938F930E9416
:10015000E4068DB79EB708960FB6F8949EBF0FBE03
:100160008DBF81EC91E0DF91CF911F910F910895A8
:10017000AF92BF92CF92DF92EF92FF920F931F93B5
:10018000CF93DF936B017C0140E250E070E060E0D0
:1001900081EA91E00E94D40620E030E0A901C70185
:1001A000B6010E947C05CBE0D1E087FF06C0F7FADC
:1001B000F094F7F8F094C8E1D1E0C701B6010E94CD
:1001C0008105162F072FB82EA92E0E94B0059B017E
:1001D000AC01C701B6010E940F0520E030E44CE1FC
:1001E00056E40E9467060E9481059F938F937F9338
:1001F0006F93AF92BF920F931F93DF93CF938AE1D8
:1002000091E09F938F9381EA91E09F938F930E9457
:10021000E4068DB79EB70E960FB6F8949EBF0FBE3C
:100220008DBF81EA91E0DF91CF911F910F91FF90F7
:10023000EF90DF90CF90BF90AF900895AF92BF92B4
:10024000CF92DF92EF92FF920F931F93CF93DF93A2
:100250006B017C0140E250E070E060E081E891E0F9
:100260000E94D40620E030E0A901C701B6010E9437
:100270007C05CBE0D1E087FF06C0F7FAF094F7F8F1
:10028000F094C8E1D1E0C701B6010E948105162FA4
:10029000072FB82EA92E0E94B0059B01AC01C70103
:1002A000B6010E940F0520E23CEB4EEB5CE40E949D
:1002B00067060E9481059F938F937F936F93AF9200
:1002C000BF920F931F93DF93CF938EE291E09F93A2
:1002D0008F9381E891E09F938F930E94E4068DB7FE
:1002E0009EB70E960FB6F8949EBF0FBE8DBF81E8E5
:1002F00091E0DF91CF911F910F91FF90EF90DF90F0
:10030000CF90BF90AF900895CF93C82F49E050E0B1
:1003100070E060E088E791E00E94D4068C2F90E0C6
:100320009C01220F232F221F330B232B79F121E372
:1003300020937F0186FF2FC021E320937E0185FF5C
:100340002FC021E320937D0184FF2FC021E3209360
:100350007C0183FF2FC021E320937B0182FF2FC00C
:1003600021E320937A0181FF2FC081E380937901FB
:10037000C0FF2FC081E3809378018AE080938001E1
:100380001092810188E791E0CF91089520E32093B6
:100390007F0186FDD1CF20E320937E0185FDD1CF63
:1003A00020E320937D0184FDD1CF20E320937C01C5
:1003B00083FDD1CF20E320937B0182FDD1CF20E3C9
:1003C00020937A0181FDD1CF80E380937901C0FD34
:1003D000D1CF80E380937801D0CF1F920F920FB6D8
:1003E0000F9211242F933F934F935F936F937F93BB
:1003F0008F939F93AF93BF93EF93FF93809174017B
:1004000090917501A0917601B09177010196A11D9F
:10041000B11D8093740190937501A0937601B09300
:10042000770116BCE0917201F09173010995FF917B
:10043000EF91BF91AF919F918F917F916F915F915C
:100440004F913F912F910F900FBE0F901F901895D5
:10045000FC01908121E030E001C0220F6A95EAF7AB
:10046000922B90830895FC01408121E030E001C08F
:10047000220F6A95EAF72095242320830895FC0132
:10048000908121E030E001C0220F6A95EAF79227BF
:1004900090830895FC01508121E030E0062E01C0D8
:1004A000220F0A94EAF72095252301C0440F6A958C
:1004B000EAF7242B20830895CF93DF93C9B149E055
:1004C00050E070E060E088E791E00E94D4068C2F55
:1004D00090E09C01220F232F221F330B232B09F4C2
:1004E00067C021E320937F0186FF5EC021E3209354
:1004F0007E0185FF55C021E320937D0184FF4CC020
:1005000021E320937C0183FF43C021E320937B01FF
:1005100082FF3AC021E320937A0181FF31C081E359
:1005200080937901C0FF28C081E3809378018AE03D
:1005300080938001109281018091C00085FD04C0EC
:100540008091C00085FFFCCFC8E7D1E088E791E04B
:100550000E94DB069E01285731402817390708F012
:1005600008C08091C00085FFFCCF89918093C600B0
:10057000EDCFDF91CF91089580E380937801D7CFBD
:1005800080E380937901CECF20E320937A01C5CF19
:1005900020E320937B01BCCF20E320937C01B3CFE9
:1005A00020E320937D01AACF20E320937E01A1CFF9
:1005B00020E320937F0198CF1F920F920FB60F92E6
:1005C00011248F9389B1809342018F910F900FBEB8
:1005D0000F901F90189578941092C50093E0909317
:1005E000C4008EE38093C2008091C1008861809333
:1005F000C10081E08093C00016BC95BD14BC8093FF
:100600006E0078942FE530E03093730120937201EF
:10061000219A229A239A249A529880936801809171
:10062000680084608093680080916D00846080938E
:100630006D008AE0D82E91E3E92E20E3F22E11E03E
:10064000ECC070914E0160914F01909150018091EA
:100650005101272F362F492F582F6B2F7A2F8F2F8D
:100660009E2F0E940F059F772091490130914A01EA
:1006700040914B0150914C010E94620618160CF4F7
:100680004EC110924D01C111012780914401812773
:100690008023809344018127809357011092580151
:1006A00095B19E7F20915601922B95B995B1880FF7
:1006B0009D7F892B85B92A9895B180915901880F22
:1006C000880F880F977F892B85B985B120915A01B2
:1006D00090E1299F900111248F7E822B85B985B1ED
:1006E00020915B0190E2299F900111248F7D822B44
:1006F00085B985B120915C0190E4299F9001112476
:100700008F7B822B85B980915D0180FD2F9A80FFC0
:100710002F9888B18E7F90915E01892B88B998B10E
:1007200080915F01880F9D7F892B88B998B1809156
:100730006001880F880F9B7F892B88B998B18091C1
:100740006101880F880F880F977F892B88B988B13E
:100750002091620190E1299F900111248F7E822BCC
:1007600088B988B12091630190E2299F90011124FA
:100770008F7D822B88B988B12091640190E4299FF4
:10078000900111248F7B822B88B98091650180FDB7
:10079000479A80FF47988BB18E7F90916601892B95
:1007A0008BB99BB180916701880F9D7F892B8BB995
:1007B0009BB180916801880F880F9B7F892B8BB933
:1007C0009BB180916901880F880F880F977F892BD3
:1007D0008BB98BB120916A0190E1299F900111247E
:1007E0008F7E822B8BB98BB120916B0190E2299F78
:1007F000900111248F7D822B8BB98BB120916C01DC
:1008000090E4299F900111248F7B822B8BB98091DA
:100810006D0180FD5F9A80FF5F9860917401709117
:1008200075018091760190917701C6B50E94B0055F
:1008300025E831EB45E85AE30E9467064B015C016D
:100840006C2F70E090E080E00E94B2052DEB37E362
:1008500046E856E30E9467069B01AC01C501B4015E
:100860000E9410054B015C01209145013091460129
:1008700040914701509148010E940F059F7720E069
:1008800030E040E05FE30E94620618160CF44AC0B4
:100890008091740190917501A0917601B0917701DA
:1008A00086B5C0914D016091740170917501809180
:1008B000760190917701D6B50E94B00525E831EB1D
:1008C00045E85AE30E9467064B015C016D2F70E01A
:1008D00090E080E00E94B2052DEB37E346E856E356
:1008E0000E9467069B01AC01C501B4010E9410057E
:1008F000B62FA72FF82FE92F8091420182FFA1CEBA
:100900004B2F5A2F6F2F7E2F40934E0150934F0144
:100910006093500170935101BD01CF019ACE1093A5
:100920004D01B3CE8092450190924601A0924701BD
:10093000B0924801C9B149E050E070E060E088E75A
:1009400091E00E94D406C7FD54C0F0927F01C6FD1D
:100950004DC0F0927E01C5FD46C0F0927D01C4FD00
:100960003FC0F0927C01C3FD38C0F0927B01C2FD14
:1009700031C0F0927A01C1FD2AC0F0927901C0FD28
:1009800023C0F0927801D092800110928101809171
:10099000C00085FD04C08091C00085FFFCCFC8E782
:1009A000D1E088E791E00E94DB069E0128573140A4
:1009B0002817390708F06CCF8091C00085FFFCCF65
:1009C00089918093C600EDCFE0927801DCCFE09270
:1009D0007901D5CFE0927A01CECFE0927B01C7CFEB
:1009E000E0927C01C0CFE0927D01B9CFE0927E0120
:1009F000B2CFE0927F01ABCF8DEC9CECACECBDE3D1
:100A00008093490190934A01A0934B01B0934C010C
:100A10000895EE0FFF1F0590F491E02D09945058B2
:100A2000BB27AA270E9427050C9428060E941A06B5
:100A300038F00E94210620F039F49F3F19F426F483
:100A40000C9417060EF4E095E7FB0C941106E92FC1
:100A50000E94390658F3BA1762077307840795078F
:100A600020F079F4A6F50C945B060EF4E0950B2EBD
:100A7000BA2FA02D0B01B90190010C01CA01A001F0
:100A80001124FF27591B99F0593F50F4503E68F14B
:100A90001A16F040A22F232F342F4427585FF3CF8C
:100AA000469537952795A795F0405395C9F77EF45D
:100AB0001F16BA0B620B730B840BBAF09150A1F0A6
:100AC000FF0FBB1F661F771F881FC2F70EC0BA0F2C
:100AD000621F731F841F48F4879577956795B795B4
:100AE000F7959E3F08F0B0CF9395880F08F09927AF
:100AF000EE0F9795879508950E94ED0508F481E023
:100B000008950E94410688F09F5798F0B92F9927C1
:100B1000B751B0F0E1F0660F771F881F991F1AF0E8
:100B2000BA95C9F714C0B13091F00E945B06B1E0EC
:100B300008950C945B06672F782F8827B85F39F0EB
:100B4000B93FCCF3869577956795B395D9F73EF481
:100B500090958095709561957F4F8F4F9F4F089529
:100B6000E89409C097FB3EF4909580957095619547
:100B70007F4F8F4F9F4F9923A9F0F92F96E9BB27FD
:100B80009395F695879577956795B795F111F8CF79
:100B9000FAF4BB0F11F460FF1BC06F5F7F4F8F4FE4
:100BA0009F4F16C0882311F096E911C0772321F0DA
:100BB0009EE8872F762F05C0662371F096E8862F72
:100BC00070E060E02AF09A95660F771F881FDAF7C9
:100BD000880F9695879597F90895990F0008550FF6
:100BE000AA0BE0E8FEEF16161706E807F907C0F0B3
:100BF00012161306E407F50798F0621B730B840BBB
:100C0000950B39F40A2661F0232B242B252B21F494
:100C100008950A2609F4A140A6958FEF811D811D34
:100C2000089597F99F6780E870E060E008959FEF6E
:100C300080EC089500240A94161617061806090673
:100C4000089500240A941216130614060506089542
:100C5000092E0394000C11F4882352F0BB0F40F4CA
:100C6000BF2B11F460FF04C06F5F7F4F8F4F9F4F0A
:100C7000089557FD9058440F551F59F05F3F71F08C
:100C80004795880F97FB991F61F09F3F79F08795F3
:100C90000895121613061406551FF2CF4695F1DF7C
:100CA00008C0161617061806991FF1CF869571050C
:100CB000610508940895E894BB2766277727CB0140
:100CC00097F908950E94ED0508F48FEF08950E94AA
:100CD0007A060C9428060E941A0638F00E94210613
:100CE00020F0952311F00C9411060C941706112492
:100CF0000C945C060E94390670F3959FC1F3950F22
:100D000050E0551F629FF001729FBB27F00DB11D8F
:100D1000639FAA27F00DB11DAA1F649F6627B00D1F
:100D2000A11D661F829F2227B00DA11D621F739F08
:100D3000B00DA11D621F839FA00D611D221F749F16
:100D40003327A00D611D231F849F600D211D822F5D
:100D5000762F6A2F11249F5750409AF0F1F0882384
:100D60004AF0EE0FFF1FBB1F661F771F881F9150B1
:100D70005040A9F79E3F510580F00C9411060C9449
:100D80005C065F3FE4F3983ED4F3869577956795CC
:100D9000B795F795E7959F5FC1F7FE2B880F911DDB
:100DA0009695879597F90895DC0101C06D934150A0
:100DB0005040E0F70895FC0101900020E9F780958C
:100DC00090958E0F9F1F0895AEE0B0E0EAEEF6E03A
:100DD0000C9493090D891E8986E08C831A830983FC
:100DE0008FEF9FE79E838D83AE01475E5F4F6F89D4
:100DF000788DCE0101960E9407072F813885020F5A
:100E0000131FF80110822E96E4E00C94AF09ABE0BA
:100E1000B0E0EDE0F7E00C9485097C013B018A012C
:100E2000FC0117821682838181FFC8C1CE01019621
:100E30005C01F7019381F30193FD859193FF81910B
:100E40003F01882309F453C1853239F493FD85911C
:100E500093FF81913F01853229F4B70190E00E9410
:100E6000F708E7CF912C212C312CFFE1F31538F056
:100E70008B3211F190F4803209F1833229F137FC81
:100E80003CC020ED280F2A3050F536FE20C08AE005
:100E9000989E200D1124922E06C08D3291F0803341
:100EA00071F7689430F8F30193FD859193FF819178
:100EB0003F018111DACF21C0689431F8689432F88B
:100EC000F2CF689433F8EFCF689434F8ECCFEAE0CF
:100ED0002E9E200D1124222E689435F8E4CF8E32F8
:100EE00029F436FC04C1689436F8DDCF8C3619F449
:100EF000689437F8D8CF8836B1F2982F9F7D9554F3
:100F00009330E0F08336A1F18337C1F1833509F0E6
:100F100063C02801F2E04F0E511CF801C080D1805F
:100F2000692D70E036FC02C06FEF7FEFC6010E94B2
:100F3000E1084C01689437F882010AC00C5F1F4F2A
:100F4000FFE3F98388248394912C6501E89437F8B2
:100F500033FE2DC0522C8114910471F5552009F4F3
:100F600068CFB70180E290E00E94F7085A94F6CF6C
:100F7000F801808189830E5F1F4FE4CF2801F2E0E2
:100F80004F0E511CF801C080D180692D70E036FCF5
:100F900002C06FEF7FEFC6010E94EC084C01820196
:100FA000D5CFB70180E290E00E94F7082A94281478
:100FB000190409F0B0F7CECFF60137FC859137FE62
:100FC00081916F01B70190E00E94F70851105A9487
:100FD000F1E08F1A9108BFCF843619F0893609F0F5
:100FE00077C0F80137FE6BC0608171818281938187
:100FF0000C5F1F4FF32DFF763F2E97FF09C0909592
:101000008095709561957F4F8F4F9F4F689437F80B
:101010002AE030E0A5010E942709C82ECA188C2CAE
:10102000432C36FE0CC0E89440F8C91440F434FE5A
:1010300005C032FC03C0F32DFE7E4F2E892C44FEEA
:1010400095C0FE01EC0DF11D8081803309F087C051
:10105000242D297E422E842D8870582E43FC95C065
:1010600040FE8FC09C2C821418F42C0C922C9818E3
:1010700044FE91C0B70180E390E00E94F70842FE71
:1010800009C088E790E041FE02C088E590E0B70122
:101090000E94F708C91408F48AC0CA94D12C9FEFA3
:1010A000C91AD90ACA0CDB1CF60182916F01B7017B
:1010B00090E00E94F708AC14BD04B1F74FCF6081F7
:1010C0007181072E000C880B990B0E5F1F4F92CF7A
:1010D000D32CE894D4F82AE030E0853739F1232D79
:1010E000297FD22E8F3601F148F48835A9F0F70117
:1010F000868197812B96E2E10C94A109803749F013
:101100008837A9F7D4FE02C06894D2F820E130E015
:101110000DC06894D4F8F6CF34FE03C0822F8660E9
:10112000D82E20E132E002C028E030E0F801D7FEFE
:101130000FC060817181828193810C5F1F4FA50177
:101140000E942709C82ECA183D2CE89437F867CFAB
:101150006081718190E080E00E5F1F4FF0CF42FC14
:1011600002C0839478CF8394839475CF842D86783E
:1011700009F471CFF6CFB70180E290E00E94F70842
:1011800083948214C0F3512C73CF522C58188214BC
:1011900008F46ECFF8CF842D867809F47BCF8BE2EC
:1011A00041FE80E247FC8DE2B70190E071CFB701CC
:1011B00080E390E00E94F7089A946CCF8FEF9FEF46
:1011C00099CFFC010590615070400110D8F78095CF
:1011D00090958E0F9F1F0895FC0161507040019003
:1011E0000110D8F7809590958E0F9F1F08950F934B
:1011F0001F93CF93DF93182F092FEB018B8181FD74
:1012000009C01FEF0FEF812F902FDF91CF911F911A
:101210000F91089582FF14C02E813F818C819D81A2
:10122000281739073CF4E881F981CF0101969983A9
:10123000888310838E819F8101969F838E83E3CF65
:10124000E885F985812F0995892BA1F3DACFFA0179
:10125000AA27283051F1203181F1E8946F936E7FF5
:101260006E5F7F4F8F4F9F4FAF4FB1E03ED0B4E0E6
:101270003CD0670F781F891F9A1FA11D680F791F27
:101280008A1F911DA11D6A0F711D811D911DA11D38
:1012900020D009F468943F912AE0269F1124301948
:1012A000305D3193DEF6CF010895462F4770405DE3
:1012B0004193B3E00FD0C9F7F6CF462F4F70405D92
:1012C0004A3318F0495D31FD4052419302D0A9F7ED
:1012D000EACFB4E0A6959795879577956795BA95E7
:1012E000C9F700976105710508959B01AC010A2EAD
:1012F00006945795479537952795BA95C9F7620F84
:10130000731F841F951FA01D08952F923F924F9227
:101310005F926F927F928F929F92AF92BF92CF9285
:10132000DF92EF92FF920F931F93CF93DF93CDB78E
:10133000DEB7CA1BDB0B0FB6F894DEBF0FBECDBF06
:1013400009942A88398848885F846E847D848C84D7
:101350009B84AA84B984C884DF80EE80FD800C81E0
:101360001B81AA81B981CE0FD11D0FB6F894DEBFC3
:0C1370000FBECDBFED010895F894FFCF33
:10137C0056616C75653A20256C690A0056616C756E
:10138C00653A20256C750A002D0056616C75653A1E
:10139C00202573256C752E2530346C750A0056612A
:1013AC006C75653A202573256C752E2530386C7557
:0213BC000A0025
:00000001FF
