:100000000C9435000C945D000C945D000C945D0024
:100010000C945D000C94DC020C945D000C945D006B
:100020000C945D000C945D000C945D000C945D00DC
:100030000C945D000C945D000C945D000C945D00CC
:100040000C94ED010C945D000C945D000C945D002B
:100050000C945D000C945D000C945D000C945D00AC
:100060000C945D000C945D00190511241FBECFEFA8
:10007000D8E0DEBFCDBF11E0A0E0B1E0E6EBF3E1F8
:1000800002C005900D92A634B107D9F722E0A6E48C
:10009000B1E001C01D92A530B207E1F710E0C5E361
:1000A000D0E004C02197FE010E942605C433D10789
:1000B000C9F70E94EB020C94D9090C940000089532
:1000C0000F931F93CF93DF93EB01182F092F40E27B
:1000D00050E070E060E085EE91E00E94F1060F9341
:1000E0001F93DF93CF9380E091E09F938F9385EEF2
:1000F00091E09F938F930E9401078DB79EB708965A
:100100000FB6F8949EBF0FBE8DBF85EE91E0DF91D4
:10011000CF911F910F9108950F931F93CF93DF936A
:10012000EB01182F092F40E250E070E060E085EC11
:1001300091E00E94F1060F931F93DF93CF938CE021
:1001400091E09F938F9385EC91E09F938F930E9412
:1001500001078DB79EB708960FB6F8949EBF0FBEE5
:100160008DBF85EC91E0DF91CF911F910F910895A4
:10017000AF92BF92CF92DF92EF92FF920F931F93B5
:10018000CF93DF936B017C0140E250E070E060E0D0
:1001900085EA91E00E94F10620E030E0A901C70164
:1001A000B6010E949905CBE0D1E087FF06C0F7FABF
:1001B000F094F7F8F094C8E1D1E0C701B6010E94CD
:1001C0009E05162F072FB82EA92E0E94CD059B0144
:1001D000AC01C701B6010E942C0520E030E44CE1DF
:1001E00056E40E9484060E949E059F938F937F93FE
:1001F0006F93AF92BF920F931F93DF93CF938AE1D8
:1002000091E09F938F9385EA91E09F938F930E9453
:1002100001078DB79EB70E960FB6F8949EBF0FBE1E
:100220008DBF85EA91E0DF91CF911F910F91FF90F3
:10023000EF90DF90CF90BF90AF900895AF92BF92B4
:10024000CF92DF92EF92FF920F931F93CF93DF93A2
:100250006B017C0140E250E070E060E085E891E0F5
:100260000E94F10620E030E0A901C701B6010E941A
:100270009905CBE0D1E087FF06C0F7FAF094F7F8D4
:10028000F094C8E1D1E0C701B6010E949E05162F87
:10029000072FB82EA92E0E94CD059B01AC01C701E6
:1002A000B6010E942C0520E23CEB4EEB5CE40E9480
:1002B00084060E949E059F938F937F936F93AF92C6
:1002C000BF920F931F93DF93CF938EE291E09F93A2
:1002D0008F9385E891E09F938F930E9401078DB7DC
:1002E0009EB70E960FB6F8949EBF0FBE8DBF85E8E1
:1002F00091E0DF91CF911F910F91FF90EF90DF90F0
:10030000CF90BF90AF900895CF93C82F49E050E0B1
:1003100070E060E08CE791E00E94F1068C2F90E0A5
:100320009C01220F232F221F330B232B79F121E372
:100330002093830186FF2FC021E32093820185FF54
:100340002FC021E32093810184FF2FC021E320935C
:10035000800183FF2FC021E320937F0182FF2FC004
:1003600021E320937E0181FF2FC081E380937D01F3
:10037000C0FF2FC081E380937C018AE080938401D9
:10038000109285018CE791E0CF91089520E32093AE
:10039000830186FDD1CF20E32093820185FDD1CF5B
:1003A00020E32093810184FDD1CF20E320938001BD
:1003B00083FDD1CF20E320937F0182FDD1CF20E3C5
:1003C00020937E0181FDD1CF80E380937D01C0FD2C
:1003D000D1CF80E380937C01D0CF1F920F920FB6D4
:1003E0000F9211242F933F934F935F936F937F93BB
:1003F0008F939F93AF93BF93EF93FF938091780177
:1004000090917901A0917A01B0917B010196A11D93
:10041000B11D8093780190937901A0937A01B093F4
:100420007B0116BCE0917601F09177010995FF916F
:10043000EF91BF91AF919F918F917F916F915F915C
:100440004F913F912F910F900FBE0F901F901895D5
:10045000FC01908121E030E001C0220F6A95EAF7AB
:10046000922B90830895FC01408121E030E001C08F
:10047000220F6A95EAF72095242320830895FC0132
:10048000908121E030E001C0220F6A95EAF79227BF
:1004900090830895FC01508121E030E0062E01C0D8
:1004A000220F0A94EAF72095252301C0440F6A958C
:1004B000EAF7242B20830895CF93DF93C9B149E055
:1004C00050E070E060E08CE791E00E94F1068C2F34
:1004D00090E09C01220F232F221F330B232B09F4C2
:1004E00067C021E32093830186FF5EC021E3209350
:1004F000820185FF55C021E32093810184FF4CC018
:1005000021E32093800183FF43C021E320937F01F7
:1005100082FF3AC021E320937E0181FF31C081E355
:1005200080937D01C0FF28C081E380937C018AE035
:1005300080938401109285018091C00085FD04C0E4
:100540008091C00085FFFCCFCCE7D1E08CE791E043
:100550000E94F8069E012C5731402817390708F0F1
:1005600008C08091C00085FFFCCF89918093C600B0
:10057000EDCFDF91CF91089580E380937C01D7CFB9
:1005800080E380937D01CECF20E320937E01C5CF11
:1005900020E320937F01BCCF20E320938001B3CFE1
:1005A00020E320938101AACF20E320938201A1CFF1
:1005B00020E32093830198CF1F920F920FB60F92E2
:1005C00011248F9389B1809346018F910F900FBEB4
:1005D0000F901F90189578941092C50093E0909317
:1005E000C4008EE38093C2008091C1008861809333
:1005F000C10081E08093C00016BC95BD14BC8093FF
:100600006E0078942FE530E03093770120937601E7
:10061000219A229A239A249A529880936C0180916D
:10062000680084608093680080916D00846080938E
:100630006D008AE0D82E91E3E92E20E3F22E01E04E
:10064000F0C07091520160915301909154018091DA
:100650005501272F362F492F582F6B2F7A2F8F2F89
:100660009E2F0E942C059F7720914D0130914E01C5
:1006700040914F01509150010E947F0618160CF4D2
:100680006BC110925101C111102780914701912F28
:10069000902790934701882311F0111144C11093C2
:1006A0005B0110925C0185B18E7F90915A01892B7C
:1006B00085B995B19D7F812F880F892B85B92A989F
:1006C00095B180915D01880F880F880F977F892BE6
:1006D00085B985B120915E0190E1299F9001112497
:1006E0008F7E822B85B985B120915F0190E2299F91
:1006F000900111248F7D822B85B985B120916001F5
:1007000090E4299F900111248F7B822B85B98091E1
:10071000610180FD2F9A80FF2F9888B18E7F909184
:100720006201892B88B998B180916301880F9D7F00
:10073000892B88B998B180916401880F880F9B7FBD
:10074000892B88B998B180916501880F880F880F2F
:10075000977F892B88B988B12091660190E1299F04
:10076000900111248F7E822B88B988B12091670176
:1007700090E2299F900111248F7D822B88B988B146
:100780002091680190E4299F900111248F7B822B96
:1007900088B98091690180FD479A80FF47988BB1A5
:1007A0008E7F90916A01892B8BB99BB180916B01EF
:1007B000880F9D7F892B8BB99BB180916C01880F2D
:1007C000880F9B7F892B8BB99BB180916D01880F1E
:1007D000880F880F977F892B8BB98BB120916E0181
:1007E00090E1299F900111248F7E822B8BB98BB1D0
:1007F00020916F0190E2299F900111248F7D822B1F
:100800008BB98BB12091700190E4299F9001112444
:100810008F7B822B8BB98091710180FD5F9A80FF65
:100820005F98609178017091790180917A0190913F
:100830007B01C6B50E94CD0525E831EB45E85AE3BA
:100840000E9484064B015C016C2F70E090E080E018
:100850000E94CF052DEB37E346E856E30E9484065D
:100860009B01AC01C501B4010E942D054B015C0147
:100870002091490130914A0140914B0150914C0126
:100880000E942C059F7720E030E040E05FE30E946B
:100890007F0618160CF463C080917801909179015D
:1008A000A0917A01B0917B0186B5C0915101609110
:1008B00078017091790180917A0190917B01D6B590
:1008C0000E94CD0525E831EB45E85AE30E948406F5
:1008D0004B015C016D2F70E090E080E00E94CF053D
:1008E0002DEB37E346E856E30E9484069B01AC01FA
:1008F000C501B4010E942D05B62FA72FF82FE92FAF
:100900008091460182FF9DCE4B2F5A2F6F2F7E2F55
:1009100040935201509353016093540170935501D9
:10092000BD01CF0196CE8091C00085FFFCCFC2E40F
:10093000D1E082E491E00E94F8069E012254314009
:100940002817390708F0ABCE8091C00085FFFCCF97
:1009500089918093C600EDCF0093510196CE80928D
:10096000490190924A01A0924B01B0924C01C9B149
:1009700049E050E070E060E08CE791E00E94F10611
:10098000C7FD54C0F0928301C6FD4DC0F0928201B4
:10099000C5FD46C0F0928101C4FD3FC0F0928001C8
:1009A000C3FD38C0F0927F01C2FD31C0F0927E01DC
:1009B000C1FD2AC0F0927D01C0FD23C0F0927C01F0
:1009C000D0928401109285018091C00085FD04C001
:1009D0008091C00085FFFCCFCCE7D1E08CE791E0AF
:1009E0000E94F8069E012C5731402817390708F05D
:1009F00053CF8091C00085FFFCCF89918093C600C2
:100A0000EDCFE0927C01DCCFE0927D01D5CFE0928A
:100A10007E01CECFE0927F01C7CFE0928001C0CFB0
:100A2000E0928101B9CFE0928201B2CFE0928301DE
:100A3000ABCF8DEC9CECACECBDE380934D0190937F
:100A40004E01A0934F01B09350010895EE0FFF1F88
:100A50000590F491E02D09945058BB27AA270E94D5
:100A600044050C9445060E94370638F00E943E0665
:100A700020F039F49F3F19F426F40C9434060EF458
:100A8000E095E7FB0C942E06E92F0E94560658F3DA
:100A9000BA17620773078407950720F079F4A6F563
:100AA0000C9478060EF4E0950B2EBA2FA02D0B01B6
:100AB000B90190010C01CA01A0011124FF27591BA3
:100AC00099F0593F50F4503E68F11A16F040A22FA9
:100AD000232F342F4427585FF3CF4695379527951A
:100AE000A795F0405395C9F77EF41F16BA0B620B19
:100AF000730B840BBAF09150A1F0FF0FBB1F661F60
:100B0000771F881FC2F70EC0BA0F621F731F841FA2
:100B100048F4879577956795B795F7959E3F08F0C8
:100B2000B0CF9395880F08F09927EE0F979587958A
:100B300008950E940A0608F481E008950E945E0666
:100B400088F09F5798F0B92F9927B751B0F0E1F08E
:100B5000660F771F881F991F1AF0BA95C9F714C03E
:100B6000B13091F00E947806B1E008950C947806B7
:100B7000672F782F8827B85F39F0B93FCCF3869577
:100B800077956795B395D9F73EF4909580957095D4
:100B900061957F4F8F4F9F4F0895E89409C097FB51
:100BA0003EF490958095709561957F4F8F4F9F4F44
:100BB0009923A9F0F92F96E9BB279395F695879588
:100BC00077956795B795F111F8CFFAF4BB0F11F44B
:100BD00060FF1BC06F5F7F4F8F4F9F4F16C08823F2
:100BE00011F096E911C0772321F09EE8872F762F28
:100BF00005C0662371F096E8862F70E060E02AF069
:100C00009A95660F771F881FDAF7880F9695879554
:100C100097F90895990F0008550FAA0BE0E8FEEF29
:100C200016161706E807F907C0F012161306E407B0
:100C3000F50798F0621B730B840B950B39F40A26A9
:100C400061F0232B242B252B21F408950A2609F487
:100C5000A140A6958FEF811D811D089597F99F678B
:100C600080E870E060E008959FEF80EC0895002434
:100C70000A941616170618060906089500240A9401
:100C800012161306140605060895092E0394000C87
:100C900011F4882352F0BB0F40F4BF2B11F460FF16
:100CA00004C06F5F7F4F8F4F9F4F089557FD90583F
:100CB000440F551F59F05F3F71F04795880F97FB20
:100CC000991F61F09F3F79F08795089512161306DA
:100CD0001406551FF2CF4695F1DF08C01616170609
:100CE0001806991FF1CF869571056105089408953E
:100CF000E894BB2766277727CB0197F908950E94D0
:100D00000A0608F48FEF08950E9497060C94450692
:100D10000E94370638F00E943E0620F0952311F01D
:100D20000C942E060C94340611240C9479060E941F
:100D3000560670F3959FC1F3950F50E0551F629FC3
:100D4000F001729FBB27F00DB11D639FAA27F00D24
:100D5000B11DAA1F649F6627B00DA11D661F829F4B
:100D60002227B00DA11D621F739FB00DA11D621F30
:100D7000839FA00D611D221F749F3327A00D611D4D
:100D8000231F849F600D211D822F762F6A2F11242F
:100D90009F5750409AF0F1F088234AF0EE0FFF1F62
:100DA000BB1F661F771F881F91505040A9F79E3FB9
:100DB000510580F00C942E060C9479065F3FE4F305
:100DC000983ED4F3869577956795B795F795E7950F
:100DD0009F5FC1F7FE2B880F911D9695879597F918
:100DE0000895DC0101C06D9341505040E0F7089533
:100DF000FC0101900020E9F7809590958E0F9F1FD0
:100E00000895AEE0B0E0E7E0F7E00C94B0090D899A
:100E10001E8986E08C831A8309838FEF9FE79E8368
:100E20008D83AE01475E5F4F6F89788DCE0101964D
:100E30000E9424072F813885020F131FF8011082AA
:100E40002E96E4E00C94CC09ABE0B0E0EAE2F7E0E7
:100E50000C94A2097C013B018A01FC0117821682D5
:100E6000838181FFC8C1CE0101965C01F7019381A6
:100E7000F30193FD859193FF81913F01882309F44C
:100E800053C1853239F493FD859193FF81913F01E0
:100E9000853229F4B70190E00E941409E7CF912C24
:100EA000212C312CFFE1F31538F08B3211F190F445
:100EB000803209F1833229F137FC3CC020ED280F44
:100EC0002A3050F536FE20C08AE0989E200D11246D
:100ED000922E06C08D3291F0803371F7689430F80D
:100EE000F30193FD859193FF81913F018111DACF49
:100EF00021C0689431F8689432F8F2CF689433F8DE
:100F0000EFCF689434F8ECCFEAE02E9E200D112448
:100F1000222E689435F8E4CF8E3229F436FC04C1D1
:100F2000689436F8DDCF8C3619F4689437F8D8CF4A
:100F30008836B1F2982F9F7D95549330E0F0833638
:100F4000A1F18337C1F1833509F063C02801F2E0D4
:100F50004F0E511CF801C080D180692D70E036FC25
:100F600002C06FEF7FEFC6010E94FE084C0168943B
:100F700037F882010AC00C5F1F4FFFE3F983882412
:100F80008394912C6501E89437F833FE2DC0522CE0
:100F90008114910471F5552009F468CFB70180E2FE
:100FA00090E00E9414095A94F6CFF8018081898359
:100FB0000E5F1F4FE4CF2801F2E04F0E511CF801E5
:100FC000C080D180692D70E036FC02C06FEF7FEFEA
:100FD000C6010E9409094C018201D5CFB70180E208
:100FE00090E00E9414092A942814190409F0B0F71B
:100FF000CECFF60137FC859137FE81916F01B701A5
:1010000090E00E94140951105A94F1E08F1A91084F
:10101000BFCF843619F0893609F077C0F80137FE62
:101020006BC060817181828193810C5F1F4FF32DB2
:10103000FF763F2E97FF09C090958095709561953A
:101040007F4F8F4F9F4F689437F82AE030E0A5011B
:101050000E944409C82ECA188C2C432C36FE0CC0A2
:10106000E89440F8C91440F434FE05C032FC03C0D3
:10107000F32DFE7E4F2E892C44FE95C0FE01EC0D13
:10108000F11D8081803309F087C0242D297E422EF6
:10109000842D8870582E43FC95C040FE8FC09C2C38
:1010A000821418F42C0C922C981844FE91C0B701AD
:1010B00080E390E00E94140942FE09C088E790E0B6
:1010C00041FE02C088E590E0B7010E941409C914EE
:1010D00008F48AC0CA94D12C9FEFC91AD90ACA0C45
:1010E000DB1CF60182916F01B70190E00E941409A8
:1010F000AC14BD04B1F74FCF60817181072E000C95
:10110000880B990B0E5F1F4F92CFD32CE894D4F825
:101110002AE030E0853739F1232D297FD22E8F3612
:1011200001F148F48835A9F0F701868197812B9663
:10113000E2E10C94BE09803749F08837A9F7D4FE64
:1011400002C06894D2F820E130E00DC06894D4F871
:10115000F6CF34FE03C0822F8660D82E20E132E025
:1011600002C028E030E0F801D7FE0FC06081718135
:10117000828193810C5F1F4FA5010E944409C82EF4
:10118000CA183D2CE89437F867CF6081718190E0F0
:1011900080E00E5F1F4FF0CF42FC02C0839478CFF7
:1011A0008394839475CF842D867809F471CFF6CF1C
:1011B000B70180E290E00E94140983948214C0F386
:1011C000512C73CF522C5818821408F46ECFF8CFDC
:1011D000842D867809F47BCF8BE241FE80E247FCC8
:1011E0008DE2B70190E071CFB70180E390E00E94FB
:1011F00014099A946CCF8FEF9FEF99CFFC01059063
:10120000615070400110D8F7809590958E0F9F1F08
:101210000895FC016150704001900110D8F780954D
:1012200090958E0F9F1F08950F931F93CF93DF9379
:10123000182F092FEB018B8181FD09C01FEF0FEFE4
:10124000812F902FDF91CF911F910F91089582FFF1
:1012500014C02E813F818C819D81281739073CF471
:10126000E881F981CF0101969983888310838E816B
:101270009F8101969F838E83E3CFE885F985812F37
:101280000995892BA1F3DACFFA01AA27283051F169
:10129000203181F1E8946F936E7F6E5F7F4F8F4FA7
:1012A0009F4FAF4FB1E03ED0B4E03CD0670F781F06
:1012B000891F9A1FA11D680F791F8A1F911DA11DEB
:1012C0006A0F711D811D911DA11D20D009F4689424
:1012D0003F912AE0269F11243019305D3193DEF6CC
:1012E000CF010895462F4770405D4193B3E00FD082
:1012F000C9F7F6CF462F4F70405D4A3318F0495D6D
:1013000031FD4052419302D0A9F7EACFB4E0A6954F
:101310009795879577956795BA95C9F70097610571
:10132000710508959B01AC010A2E069457954795C7
:1013300037952795BA95C9F7620F731F841F951FBC
:10134000A01D08952F923F924F925F926F927F92CD
:101350008F929F92AF92BF92CF92DF92EF92FF92C5
:101360000F931F93CF93DF93CDB7DEB7CA1BDB0B71
:101370000FB6F894DEBF0FBECDBF09942A88398816
:1013800048885F846E847D848C849B84AA84B9841D
:10139000C884DF80EE80FD800C811B81AA81B98129
:1013A000CE0FD11D0FB6F894DEBF0FBECDBFED013D
:0613B0000895F894FFCF40
:1013B60056616C75653A20256C690A0056616C7534
:1013C600653A20256C750A002D0056616C75653AE4
:1013D600202573256C752E2530346C750A005661F0
:1013E6006C75653A202573256C752E2530386C751D
:0613F6000A004F4E00004A
:00000001FF
