:100000000C9435000C945D000C945D000C945D0024
:100010000C945D000C94CA020C945D000C945D007D
:100020000C945D000C945D000C945D000C945D00DC
:100030000C945D000C945D000C945D000C945D00CC
:100040000C94F8010C945D000C945D000C945D0020
:100050000C945D000C945D000C945D000C945D00AC
:100060000C945D000C945D00890611241FBECFEF37
:10007000D8E0DEBFCDBF11E0A0E0B1E0E6EFF6E1F1
:1000800002C005900D92A036B107D9F722E0A0E694
:10009000B1E001C01D92AC33B207E1F710E0C5E357
:1000A000D0E004C02197FE010E94A606C433D10708
:1000B000C9F70E94D0020C94790B0C9400000895AB
:1000C000CF93DF9300D000D0CDB7DEB769837A83BA
:1000D0008B839C8340E250E060E070E08CE192E032
:1000E0000E9471088C818F939B819F938A818F934B
:1000F00099819F9380E091E09F938F938CE192E0B0
:100100009F938F930E9481080FB6F894DEBF0FBEB5
:10011000CDBF8CE192E00F900F900F900F90DF9188
:10012000CF910895CF93DF9300D000D0CDB7DEB745
:1001300069837A838B839C8340E250E060E070E0C7
:100140008CEF91E00E9471088C818F939B819F932B
:100150008A818F9399819F938CE091E09F938F93F5
:100160008CEF91E09F938F930E9481080FB6F894D3
:10017000DEBF0FBECDBF8CEF91E00F900F900F90C0
:100180000F90DF91CF910895CF93DF93CDB7DEB776
:100190002A970FB6F894DEBF0FBECDBFAB01BC01EE
:1001A00049835A838B837C8340E250E060E070E0B7
:1001B0008CED91E00E94710840E050E09A01698165
:1001C0007A818B819C810E94190787FD4AC08BE050
:1001D00091E089879A8769817A818B819C810E94CD
:1001E0001E076D837E838F8398870E944D079B0136
:1001F000AC0169817A818B819C810E94AC0620E0F0
:1002000030E44CE156E40E9404080E941E079F93CC
:100210008F937F936F9398859F93AF81AF93BE81A8
:10022000BF938D818F939A859F93A985AF938AE120
:1002300091E09F938F938CED91E09F938F930E9419
:1002400081080FB6F894DEBF0FBECDBF8CED91E0F4
:100250002A960FB6F894DEBF0FBECDBFDF91CF91C7
:10026000089589819A81AB81BC81B05889839A8332
:10027000AB83BC83A8E1B1E0A987BA87ACCFCF93A9
:10028000DF93CDB7DEB72A970FB6F894DEBF0FBE67
:10029000CDBFAB01BC0149835A838B837C8340E291
:1002A00050E060E070E08CEB91E00E94710840E06B
:1002B00050E09A0169817A818B819C810E941907A3
:1002C00087FD4AC08BE091E089879A8769817A81AE
:1002D0008B819C810E941E076D837E838F8398870C
:1002E0000E944D079B01AC0169817A818B819C81C1
:1002F0000E94AC0620E23CEB4EEB5CE40E9404085A
:100300000E941E079F938F937F936F9398859F936F
:10031000AF81AF93BE81BF938D818F939A859F9359
:10032000A985AF938EE291E09F938F938CEB91E040
:100330009F938F930E9481080FB6F894DEBF0FBE83
:10034000CDBF8CEB91E02A960FB6F894DEBF0FBEBE
:10035000CDBFDF91CF91089589819A81AB81BC8116
:10036000B05889839A83AB83BC83A8E1B1E0A987A5
:10037000BA87ACCFCF93C82F49E050E060E070E07F
:1003800083EB91E00E9471088C2F90E0880F892FF9
:10039000881F990B805D8093BA0180E3C6FD81E3DD
:1003A0008093B90180E3C5FD81E38093B80180E3C8
:1003B000C4FD81E38093B70180E3C3FD81E38093B3
:1003C000B60180E3C2FD81E38093B50180E3C1FD06
:1003D00081E38093B401C170C05DC093B3018AE032
:1003E0008093BB011092BC0183EB91E0CF91089503
:1003F0001F920F920FB60F9211242F933F934F939A
:100400005F936F937F938F939F93AF93BF93EF937C
:10041000FF938091AF019091B001A091B101B09193
:10042000B2010196A11DB11D8093AF019093B0015F
:10043000A093B101B093B20116BCE091AD01F0916F
:10044000AE010995FF91EF91BF91AF919F918F916F
:100450007F916F915F914F913F912F910F900FBEC0
:100460000F901F901895FC01808121E001C0220FA0
:100470006A95EAF7822B80830895FC01208181E050
:1004800001C0880F6A95EAF78095822380830895DA
:10049000FC01808121E001C0220F6A95EAF78227E2
:1004A00080830895FC01208181E0062E01C0880F21
:1004B0000A94EAF78095822301C0440F6A95EAF70F
:1004C000842B808308950F931F93CF93DF93C9B13B
:1004D00049E050E060E070E083EB91E00E94710839
:1004E0008C2F90E0880F892F881F990B805D809357
:1004F000BA0180E3C6FD81E38093B90180E3C5FDC5
:1005000081E38093B80180E3C4FD81E38093B70168
:1005100080E3C3FD81E38093B60180E3C2FD81E304
:100520008093B50180E3C1FD81E38093B401C17084
:10053000C05DC093B3018AE08093BB011092BC01FF
:100540008091C00085FD04C08091C00085FFFCCF74
:1005500003EB11E0C0E0D0E083EB91E00E9478086B
:10056000C817D90708F011C08091C00085FFFCCFE3
:10057000F80181918F018093C600219683EB91E071
:100580000E947808C817D90778F3DF91CF911F919F
:100590000F9108958F9389B1809360018F91189581
:1005A00000D000D000D0CDB7DEB778941092C5004F
:1005B00093E09093C4008EE38093C2008091C100C9
:1005C00088618093C10081E08093C00016BC95BD16
:1005D00014BC80936E0078942FE530E02093AD0139
:1005E0003093AE01219A229A239A249A52988093AA
:1005F000A30153988093A40154988093A5018091FE
:10060000680084608093680080916D0084608093AE
:100610006D0080916D00886080936D0080916D0009
:10062000806180936D009AE0992EDD24D3946091CF
:10063000AF017091B0018091B1019091B20126B5E6
:100640002D830E944D0725E831EB45E85AE30E94CF
:10065000040869837A838B839C833D81632F70E0D8
:1006600080E090E00E944F072DEB37E346E856E329
:100670000E9404089B01AC0169817A818B819C8175
:100680000E94AD062B013C0120916601309167016B
:1006900040916801509169010E94AC069F7720E06B
:1006A00030E040E05FE30E94FF0718160CF06BC0DB
:1006B00040926601509267016092680170926901F0
:1006C00089B1898349E050E060E070E083EB91E01C
:1006D0000E947108998197FB882780F9805D80933B
:1006E000BA0181E3E92F96FF80E38093B90181E3AA
:1006F000FE2FE5FF80E38093B80181E32F2FF4FF05
:1007000080E38093B70181E3322F23FF80E380935E
:10071000B60181E332FF80E38093B501898181FFD7
:10072000F6C281E38093B40199819170905D9093BA
:10073000B3019092BB011092BC018091C00085FD75
:1007400004C08091C00085FFFCCF03EB11E019824B
:100750001A8283EB91E00E947808E981FA81E81718
:10076000F90708F010C08091C00085FFFCCFF801A8
:1007700081918F018093C60029813A812F5F3F4F7D
:1007800029833A83E6CF8091AF019091B001A09187
:10079000B101B091B20186B5F0916001F095FE8390
:1007A000B09088016091AF017091B0018091B1016A
:1007B0009091B20126B52D830E944D0725E831EBBB
:1007C00045E85AE30E94040869837A838B839C83FB
:1007D0003D81632F70E080E090E00E944F072DEB99
:1007E00037E346E856E30E9404089B01AC016981A7
:1007F0007A818B819C810E94AD06EE81E2FD71C2FF
:1008000050918D0140918E0130918F012091900186
:10081000F901252F342F4F2F5E2F0E94AC069F77B2
:10082000209184013091850140918601509187018A
:100830000E94FF0718160CF050C2AB2CAD2480E0CC
:10084000809388018091AF019091B001A091B10196
:10085000B091B20186B580907B016091AF0170913B
:10086000B0018091B1019091B201F6B5FD830E9473
:100870004D0725E831EB45E85AE30E9404086983F7
:100880007A838B839C832D81622F70E080E090E0DF
:100890000E944F072DEB37E346E856E30E94040819
:1008A0009B01AC0169817A818B819C810E94AD069C
:1008B0003E8133FD03C250917C0140917D01309116
:1008C0007E0120917F01F901252F342F4F2F5E2FBC
:1008D0000E94AC069F77209177013091780140917A
:1008E000790150917A010E94FF0718160CF4E2C1B9
:1008F000E82080E080937B018091AF019091B0016E
:10090000A091B101B091B20186B580916E018D8345
:100910006091AF017091B0018091B1019091B201ED
:1009200016B50E944D0725E831EB45E85AE30E94D1
:10093000040869837A838B839C83612F70E080E055
:1009400090E00E944F072DEB37E346E856E30E9404
:1009500004089B01AC0169817A818B819C810E9492
:10096000AD06EE81E4FD97C150916F014091700199
:100970003091710120917201F901252F342F4F2FF1
:100980005E2F0E94AC069F7720916A0130916B0127
:1009900040916C0150916D010E94FF0718160CF0F8
:1009A00050C1D0926E01811028C1F12C8091630159
:1009B000A0926301B82209F000C180916501B826B8
:1009C000BE248B2D8F25809365011091610191E0EC
:1009D000BF1090E090936101182309F0CAC09C2DCC
:1009E0009127E92EE82221E0C11220E0F22EF82220
:1009F0008E2D8D25809392014F2D4D25409393018F
:100A000035B13E7F20919101232B25B925B1880F67
:100A10002D7F822B85B940FD2A9A40FF2A9825B167
:100A200080919401880F880F880F277F822B85B9CA
:100A300025B1809195018295807F2F7E822B85B98B
:100A400025B1809196018295880F807E2F7D822B23
:100A500085B925B1809197018295880F880F807C98
:100A60002F7B822B85B98091980180FD2F9A80FF82
:100A70002F9828B12E7F80919901822B88B928B1B7
:100A800080919A01880F2D7F822B88B928B180919F
:100A90009B01880F880F2B7F822B88B928B180910A
:100AA0009C01880F880F880F277F822B88B928B177
:100AB00080919D018295807F2F7E822B88B928B1FD
:100AC00080919E018295880F807E2F7D822B88B930
:100AD00028B180919F018295880F880F807C2F7BA1
:100AE000822B88B98091A00180FD479A80FF4798AA
:100AF0002BB12E7F8091A101822B8BB92BB18091DC
:100B0000A201880F2D7F822B8BB92BB18091A3017D
:100B1000880F880F2B7F822B8BB92BB18091A4017A
:100B2000880F880F880F277F822B8BB92BB180917C
:100B3000A5018295807F2F7E822B8BB92BB180916E
:100B4000A6018295880F807E2F7D822B8BB92BB1D9
:100B50008091A7018295880F880F807C2F7B822B44
:100B60008BB98091A80180FD5F9A80FF5F98C92EA4
:100B70005ECD8091C00085FFFCCF8DE5E82E81E041
:100B8000F82E19821A828DE591E00E947808E98199
:100B9000FA81E817F90708F0B7C08091C00085FF17
:100BA000FCCFF70181917F018093C60029813A81B2
:100BB0002F5F3F4F29833A83E6CF8091C00085FFA6
:100BC000FCCF2DE531E029833A8300E010E08DE58C
:100BD00091E00E9478080817190708F0EECE80917E
:100BE000C00085FFFCCFE981FA818191E983FA8316
:100BF0008093C6000F5F1F4FEACF812C00C0809109
:100C0000C00085FFFCCF02E411E019821A8282E461
:100C100091E00E947808E981FA81E817F90708F065
:100C20006FC08091C00085FFFCCFF80181918F01DA
:100C30008093C60029813A812F5F3F4F29833A83F1
:100C4000E6CF10926E01FD81F11509F4ACCE811052
:100C5000D6CF8091C00085FFFCCF0FE411E0198250
:100C60001A828FE491E00E947808E981FA81E817FE
:100C7000F90708F09BCE8091C00085FFFCCFF801FA
:100C800081918F018093C60029813A812F5F3F4F68
:100C900029833A83E6CF8B019C0160936F01109307
:100CA00070018093710130937201562F472F382FB6
:100CB000292F62CE81E0E12C812C1CCE8B019C017E
:100CC00060937C0110937D0180937E0130937F01BE
:100CD000562F472F382F292FF6CD81E0B12CA82E83
:100CE000AFCD8B019C0160938D0110938E01809399
:100CF0008F0130939001562F472F382F292F88CD01
:100D0000811409F452CEA5CF8091650168CE80E3AD
:100D100009CD8DEC9CECACECBDE380938401909309
:100D20008501A0938601B09387018093770190930A
:100D30007801A0937901B0937A0180936A0190932E
:100D40006B01A0936C01B0936D010895EE0FFF1F2E
:100D50000590F491E02D09945058BB27AA270E94D2
:100D6000C4060C94C5070E94B70738F00E94BE075E
:100D700020F039F49F3F19F426F40C94B4070EF4D4
:100D8000E095E7FB0C94AE07E92F0E94D60758F3D5
:100D9000BA17620773078407950720F079F4A6F560
:100DA0000C94F8070EF4E0950B2EBA2FA02D0B0132
:100DB000B90190010C01CA01A0011124FF27591BA0
:100DC00099F0593F50F4503E68F11A16F040A22FA6
:100DD000232F342F4427585FF3CF46953795279517
:100DE000A795F0405395C9F77EF41F16BA0B620B16
:100DF000730B840BBAF09150A1F0FF0FBB1F661F5D
:100E0000771F881FC2F70EC0BA0F621F731F841F9F
:100E100048F4879577956795B795F7959E3F08F0C5
:100E2000B0CF9395880F08F09927EE0F9795879587
:100E300008950E948A0708F481E008950E94DE0761
:100E400088F09F5798F0B92F9927B751B0F0E1F08B
:100E5000660F771F881F991F1AF0BA95C9F714C03B
:100E6000B13091F00E94F807B1E008950C94F807B2
:100E7000672F782F8827B85F39F0B93FCCF3869574
:100E800077956795B395D9F73EF4909580957095D1
:100E900061957F4F8F4F9F4F0895E89409C097FB4E
:100EA0003EF490958095709561957F4F8F4F9F4F41
:100EB0009923A9F0F92F96E9BB279395F695879585
:100EC00077956795B795F111F8CFFAF4BB0F11F448
:100ED00060FF1BC06F5F7F4F8F4F9F4F16C08823EF
:100EE00011F096E911C0772321F09EE8872F762F25
:100EF00005C0662371F096E8862F70E060E02AF066
:100F00009A95660F771F881FDAF7880F9695879551
:100F100097F90895990F0008550FAA0BE0E8FEEF26
:100F200016161706E807F907C0F012161306E407AD
:100F3000F50798F0621B730B840B950B39F40A26A6
:100F400061F0232B242B252B21F408950A2609F484
:100F5000A140A6958FEF811D811D089597F99F6788
:100F600080E870E060E008959FEF80EC0895002431
:100F70000A941616170618060906089500240A94FE
:100F800012161306140605060895092E0394000C84
:100F900011F4882352F0BB0F40F4BF2B11F460FF13
:100FA00004C06F5F7F4F8F4F9F4F089557FD90583C
:100FB000440F551F59F05F3F71F04795880F97FB1D
:100FC000991F61F09F3F79F08795089512161306D7
:100FD0001406551FF2CF4695F1DF08C01616170606
:100FE0001806991FF1CF869571056105089408953B
:100FF000E894BB2766277727CB0197F908950E94CD
:101000008A0708F48FEF08950E9417080C94C5070B
:101010000E94B70738F00E94BE0720F0952311F018
:101020000C94AE070C94B40711240C94F9070E9499
:10103000D60770F3959FC1F3950F50E0551F629F3F
:10104000F001729FBB27F00DB11D639FAA27F00D21
:10105000B11DAA1F649F6627B00DA11D661F829F48
:101060002227B00DA11D621F739FB00DA11D621F2D
:10107000839FA00D611D221F749F3327A00D611D4A
:10108000231F849F600D211D822F762F6A2F11242C
:101090009F5750409AF0F1F088234AF0EE0FFF1F5F
:1010A000BB1F661F771F881F91505040A9F79E3FB6
:1010B000510580F00C94AE070C94F9075F3FE4F300
:1010C000983ED4F3869577956795B795F795E7950C
:1010D0009F5FC1F7FE2B880F911D9695879597F915
:1010E0000895DC0101C06D9341505040E0F7089530
:1010F000FC0101900020E9F7809590958E0F9F1FCD
:101100000895AEE0B0E0E7E8F8E00C94520B86E01A
:101110008C832B893C8929833A838FEF9FE78D83CA
:101120009E83AE01495E5F4F6D897E89CE01019637
:101130000E94A508EF81F8852B893C89E20FF31FF7
:1011400010822E96E2E00C946E0BABE0B0E0EBEA7E
:10115000F8E00C94450B6C017B018A01FC011682BE
:101160001782838181FFDFC13AE0532EF60123818C
:10117000F70123FD859123FF81917F01811509F4FA
:1011800037C1853239F423FD959123FF91917F0179
:10119000953229F4B60190E00E94AC0AE7CF30E026
:1011A000912C612C712CF0E27F1640F59B32D9F026
:1011B00058F49032D1F09332F1F09E3291F576FCF2
:1011C00017C1689476F806C09D3291F09033C1F44F
:1011D000689470F8F70123FD959123FF91917F01A9
:1011E0009111E1CF28C0689471F8689472F8F2CF39
:1011F000689473F8EFCF689474F8ECCF77FC1BC059
:1012000080ED890F8A30C8F676FE05C0959C800D6A
:101210001124982EDFCF659C800D1124682E7F2A23
:10122000D9CF9C3619F4689477F8D4CF9C3409F45C
:1012300045C0983679F2892F8F7D8554833008F424
:101240003FC0933609F461C0933709F46BC09335FE
:1012500009F477C0943619F0993609F0A4C0F80162
:1012600077FE9AC061917191819191918F01272DA3
:101270002F76822E97FF04C00E943A0B689487F85D
:101280002AE030E05E014FEFA41AB40AA5010E94E3
:10129000DC0A782E7A1886FECFC0882D8E7F7914CE
:1012A00008F0C9C084FE1DC182FC11C12EEE82224D
:1012B000B92C882D867809F4CBC00EC131E08ACFD5
:1012C000311501F1085F1F4F8FE3898321E0822EE2
:1012D000912C5E012FEFA21AB20AE89477F873FC02
:1012E00003C086149104F0F18114910409F041C007
:1012F000611409F43BCFB60180E290E00E94AC0A91
:101300006A94F6CF0C5F1F4FDFCFF801808189838D
:101310000E5F1F4F91E0892E912C5E01FFEFAF1AF7
:10132000BF0ADBCFF801A190B1908F01692D70E069
:1013300076FC02C06FEF7FEFC5010E94A10A4C014D
:10134000CCCFF801A190B1908F01692D70E076FCAF
:1013500002C06FEF7FEFC5010E94960A4C016894AE
:1013600077F8BDCFB60180E290E00E94AC0A6A94A3
:10137000B8CFF50177FC859177FE81915F01B601C9
:1013800090E00E94AC0A81E0611001C080E0681A20
:10139000F1E08F1A9108A8CF61917191872F880F82
:1013A000880B982F63CF9537C9F4872CE89484F87D
:1013B0002AE030E0F80187FE39C061917191819196
:1013C00091918F015E01FFEFAF1ABF0AA5010E9444
:1013D000DC0A782E7A18E89487F85DCF872D897F0C
:1013E000882E903799F058F49835A9F09F36D9F0A7
:1013F000F601868197812B96EFE00C94610B98376C
:10140000B9F774FC05C020E130E0D4CF689484F8CB
:10141000689482F8F8CF74FE03C0E72DE6608E2E44
:1014200020E132E0C7CF28E030E0C4CF6191719174
:1014300080E090E0C6CF882EB72C84FE3ACFFE0124
:10144000E70DF11D8081803309F044C049EE84220C
:1014500083FC0EC080FE51C0972CB61418F4960C75
:101460009B18B62C862D8B196B1408F480E0B80EEF
:10147000B61408F044C06B1884FE43C0B60180E384
:1014800090E00E94AC0A82FE09C088E590E081FCF1
:1014900002C088E790E0B6010E94AC0A7914E0F13E
:1014A0005E018FEFA81AB80A7A9482E0882E912CF8
:1014B0008C0E9D1E870C911CF40182914F01B60188
:1014C00090E00E94AC0A8A149B04B1F711CFB92CAA
:1014D000882EB5CF82FC02C0B394BACFB394B39434
:1014E000B7CFB92C882EE5CEB60180E290E00E94FD
:1014F000AC0AA394A614C0F3B5CFAB2CFBCF612CE0
:10150000BBCF882D867851F280E281FC8BE287FC8C
:101510008DE2B60190E0C0CFB60180E390E00E947A
:10152000AC0A9A94BBCF8FEF9FEF65CFFC0105907B
:10153000615070400110D8F7809590958E0F9F1FD5
:101540000895FC016150704001900110D8F780951A
:1015500090958E0F9F1F08950F931F93CF93DF9346
:10156000182F092FEB018B8181FD09C00FEF1FEFB1
:10157000812F902FDF91CF911F910F91089582FFBE
:1015800014C02E813F818C819D81281739073CF43E
:10159000E881F981CF0101968883998310838E8138
:1015A0009F8101968E839F83E3CFE885F985812F04
:1015B0000995892BA1F3DACFFA01AA27283051F136
:1015C000203181F1E8946F936E7F6E5F7F4F8F4F74
:1015D0009F4FAF4FB1E03ED0B4E03CD0670F781FD3
:1015E000891F9A1FA11D680F791F8A1F911DA11DB8
:1015F0006A0F711D811D911DA11D20D009F46894F1
:101600003F912AE0269F11243019305D3193DEF698
:10161000CF010895462F4770405D4193B3E00FD04E
:10162000C9F7F6CF462F4F70405D4A3318F0495D39
:1016300031FD4052419302D0A9F7EACFB4E0A6951C
:101640009795879577956795BA95C9F7009761053E
:10165000710508959B01AC010A2E06945795479594
:1016600037952795BA95C9F7620F731F841F951F89
:10167000A01D089590958095709561957F4F8F4F2F
:101680009F4F08952F923F924F925F926F927F9259
:101690008F929F92AF92BF92CF92DF92EF92FF9282
:1016A0000F931F93CF93DF93CDB7DEB7CA1BDB0B2E
:1016B0000FB6F894DEBF0FBECDBF09942A883988D3
:1016C00048885F846E847D848C849B84AA84B984DA
:1016D000C884DF80EE80FD800C811B81AA81B981E6
:1016E000CE0FD11D0FB6F894DEBF0FBECDBFED01FA
:0616F0000895F894FFCFFD
:1016F60056616C75653A20256C690A0056616C75F1
:10170600653A20256C750A002D0056616C75653AA0
:10171600202573256C752E2530346C750A005661AC
:101726006C75653A202573256C752E2530386C75D9
:101736000A004F50454E20454E4453544F500043E7
:101746004C4F534520454E4453544F50004F4E0086
:00000001FF
