:100000000C9435000C9452000C9452000C94520045
:100010000C9452000C9401010C9452000C94520068
:100020000C9452000C9452000C9452000C94520008
:100030000C9452000C9452000C9452000C945200F8
:100040000C9485000C9452000C9452000C945200B5
:100050000C9452000C9452000C9452000C945200D8
:100060000C9452000C945200870311241FBECFEF52
:10007000D8E0DEBFCDBF21E0A0E0B1E001C01D921D
:10008000A335B207E1F710E0C5E3D0E004C0219743
:10009000FE010E94A403C433D107C9F70E941001D6
:1000A0000C943B050C940000CF92DF92EF92FF92EC
:1000B000CF9360914F0170915001809151019091C7
:1000C0005201C6B50E94170425E831EB45E85AE312
:1000D0000E94AA046B017C016C2F70E090E080E02C
:1000E0000E9419042DEB37E346E856E30E94AA0468
:1000F0009B01AC01C701B6010E94AB03CF91FF90F9
:10010000EF90DF90CF90089508951F920F920FB651
:100110000F9211242F933F934F935F936F937F938D
:100120008F939F93AF93BF93EF93FF9380914F0172
:1001300090915001A0915101B09152010196A11DE1
:10014000B11D80934F0190935001A0935101B09342
:10015000520116BCE0914D01F0914E010995FF91BD
:10016000EF91BF91AF919F918F917F916F915F912F
:100170004F913F912F910F900FBE0F901F901895A8
:10018000FC01908121E030E002C0220F331F6A950C
:10019000E2F7922B90830895FC01408121E030E04A
:1001A00002C0220F331F6A95E2F720952423208393
:1001B0000895FC01908121E030E002C0220F331F3E
:1001C0006A95E2F7922790830895FC01508121E01F
:1001D00030E0062E02C0220F331F0A94E2F720956A
:1001E000252350E002C0440F551F6A95E2F7242BE7
:1001F00020830895E1E3F1E0858191E089278583FB
:1002000008951F920F920FB60F9211248F9389B108
:10021000809300018F910F900FBE0F901F90189543
:10022000219A229A239A249A259A299A2A9A2B9AD1
:100230002C9A789416BC83E085BD14BC81E0809331
:100240006E00789424E830E030934E0120934D0105
:100250005298E1E3F1E0828B5398838B5498848B1E
:1002600085B18E7F9081892B85B995B18181880F69
:100270009D7F892B85B995B18281880F880F9B7FDF
:10028000892B85B995B18381880F880F880F977F57
:10029000892B85B985B1248190E1299F9001112492
:1002A0008F7E822B85B985B1258190E2299F9001AF
:1002B00011248F7D822B85B985B1268190E4299FF9
:1002C000900111248F7B822B85B9878180FD2F9A25
:1002D00080FF2F9888B18E7F9085892B88B998B13F
:1002E0008185880F9D7F892B88B998B18285880F79
:1002F000880F9B7F892B88B998B18385880F880FD9
:10030000880F977F892B88B988B1248590E1299F30
:10031000900111248F7E822B88B988B1258590E2C7
:10032000299F900111248F7D822B88B988B1268561
:1003300090E4299F900111248F7B822B88B98785B7
:1003400080FD479A80FF47988BB18E7F9089892BDB
:100350008BB99BB18189880F9D7F892B8BB95A9A64
:100360005B9A5C9A8BB1258990E2299F90011124B8
:100370008F7D822B8BB98BB1268990E4299F9001C8
:1003800011248F7B822B8BB9878980FD5F9A80FF38
:100390005F98E8E6F0E0808184608083EDE6F0E03D
:1003A0008081846080838081886080838081806197
:1003B00080830F2EF4E2CF2EF1E0DF2EF02D3324D8
:1003C00033940F2EF7E1EF2EF1E0FF2EF02D0AE02F
:1003D00011E00F2EF1E08F2EF1E09F2EF02DC1E302
:1003E000D1E00FC1409206015092070160920801CE
:1003F000709209010E94FA001CC1712C3DC1512C60
:1004000065C1F80125813681478150850E94AA0384
:100410009F77532CF80120813181428153810E94C2
:10042000A50418160CF069C1F8015482772011F068
:10043000752C7324872DE3E0F1E09081262D232590
:1004400020836922932D20910501261509F457C1B7
:100450007B2C7420332D971509F453C12822932D3A
:10046000321509F450C190930501F4012081832DC8
:10047000321180E0F40180832923432DA21609F470
:1004800044C1B92EB422232CA212212C29222B2DB7
:1004900023252983922D93259A838B838C8335B1D1
:1004A0003E7F5881352B35B935B1220F3D7F232B47
:1004B00025B925B1990F990F2B7F922B95B955B17D
:1004C00090E09C01220F331F220F331F220F331F96
:1004D000577F252B25B925B182959295907F982736
:1004E000807F98272F7E822B85B985B12D81F0E200
:1004F0002F9F900111248F7D822B85B985B12E818C
:1005000090E4299F900111248F7B822B85B98F81E4
:1005100080FD2F9A80FF2F9888B18E7F9885892B38
:1005200088B998B18985880F9D7F892B88B998B142
:100530008A85880F880F9B7F892B88B998B18B8516
:10054000880F880F880F977F892B88B988B12C85F1
:10055000E0E12E9F900111248F7E822B88B988B113
:100560002D85F0E22F9F900111248F7D822B88B979
:1005700088B12E8590E4299F900111248F7B822BD6
:1005800088B98F8580FD479A80FF47988BB18E7F11
:100590009889892B8BB99BB18989880F9D7F892B7D
:1005A0008BB99BB18A89880F880F9B7F892B8BB968
:1005B0009BB18B89880F880F880F977F892B8BB908
:1005C0008BB12C89E0E12E9F900111248F7E822B2C
:1005D0008BB98BB12D89F0E22F9F900111248F7D73
:1005E000822B8BB98BB12E8990E4299F9001112425
:1005F0008F7B822B8BB98F8980FD5F9A80FF5F98FC
:10060000A42E0E9454002B013C0120910601309140
:10061000070140910801509109010E94AA039F77A8
:1006200020E030E040E05FE30E94A50418160CF4DF
:10063000D9CE0E945400709000017094F60164803D
:100640000E94540072FE05C0F6016187728783879D
:100650009487F60121853285438554850E94AA033B
:100660009F77732CF60120813181428153810E9452
:10067000A50418160CF0C1CE7324F601748266200E
:1006800011F0672C63240E94540050900001509494
:10069000F70144800E94540053FE05C0F7016583B2
:1006A000768387839087F70125813681478150853E
:1006B0000E94AA039F77532CF70120813181428148
:1006C00053810E94A50418160CF099CEF7015482AC
:1006D000442011F0452C43240E9454005090000106
:1006E0005094F80174800E94540054FE8ACEF801A0
:1006F000658376838783908784CE512C95CE90E056
:10070000A7CE30E0ABCE90E0AECE40E0BACE80E0F7
:1007100090E0A0E8BEE38093240190932501A0938C
:100720002601B09327018093170190931801A0939D
:100730001901B0931A0180930A0190930B01A093C1
:100740000C01B0930D010895EE0FFF1F0590F49179
:10075000E02D09945058BB27AA270E94C2030C948D
:100760006B040E945D0438F00E94640420F039F4A8
:100770009F3F19F426F40C945A040EF4E095E7FB1D
:100780000C945404E92F0E947C0458F3BA176207B2
:1007900073078407950720F079F4A6F50C949E045E
:1007A0000EF4E0950B2EBA2FA02D0B01B90190018C
:1007B0000C01CA01A0011124FF27591B99F0593FD0
:1007C00050F4503E68F11A16F040A22F232F342F18
:1007D0004427585FF3CF469537952795A795F04066
:1007E0005395C9F77EF41F16BA0B620B730B840B7B
:1007F000BAF09150A1F0FF0FBB1F661F771F881F33
:10080000C2F70EC0BA0F621F731F841F48F487958A
:1008100077956795B795F7959E3F08F0B0CF93957C
:10082000880F08F09927EE0F979587950895E8941B
:1008300009C097FB3EF490958095709561957F4F28
:100840008F4F9F4F9923A9F0F92F96E9BB279395D6
:10085000F695879577956795B795F111F8CFFAF4E6
:10086000BB0F11F460FF1BC06F5F7F4F8F4F9F4F17
:1008700016C0882311F096E911C0772321F09EE875
:10088000872F762F05C0662371F096E8862F70E0DB
:1008900060E02AF09A95660F771F881FDAF7880FB5
:1008A0009695879597F9089597F99F6780E870E086
:1008B00060E008959FEF80EC089500240A941616D6
:1008C000170618060906089500240A94121613063E
:1008D000140605060895092E0394000C11F48823CC
:1008E00052F0BB0F40F4BF2B11F460FF04C06F5FE8
:1008F0007F4F8F4F9F4F089557FD9058440F551FBE
:1009000059F05F3F71F04795880F97FB991F61F091
:100910009F3F79F087950895121613061406551F08
:10092000F2CF4695F1DF08C0161617061806991F74
:10093000F1CF86957105610508940895E894BB2769
:1009400066277727CB0197F908950E94170508F4C9
:100950008FEF08950E94BD040C946B040E945D0407
:1009600038F00E94640420F0952311F00C94540494
:100970000C945A0411240C949F040E947C0470F37C
:10098000959FC1F3950F50E0551F629FF001729F34
:10099000BB27F00DB11D639FAA27F00DB11DAA1F43
:1009A000649F6627B00DA11D661F829F2227B00D90
:1009B000A11D621F739FB00DA11D621F839FA00D1B
:1009C000611D221F749F3327A00D611D231F849F6B
:1009D000600D211D822F762F6A2F11249F575040C2
:1009E0009AF0F1F088234AF0EE0FFF1FBB1F661F3D
:1009F000771F881F91505040A9F79E3F510580F006
:100A00000C9454040C949F045F3FE4F3983ED4F399
:100A1000869577956795B795F795E7959F5FC1F7A9
:100A2000FE2B880F911D9695879597F90895990F3C
:100A30000008550FAA0BE0E8FEEF16161706E807A8
:100A4000F907C0F012161306E407F50798F0621BC9
:100A5000730B840B950B39F40A2661F0232B242B9E
:100A6000252B21F408950A2609F4A140A6958FEFBD
:0A0A7000811D811D0895F894FFCF49
:00000001FF
