:100000000C9435000C945D000C945D000C945D0024
:100010000C945D000C94CA020C945D000C945D007D
:100020000C945D000C945D000C945D000C945D00DC
:100030000C945D000C945D000C945D000C945D00CC
:100040000C94F8010C945D000C945D000C945D0020
:100050000C945D000C945D000C945D000C945D00AC
:100060000C945D000C945D008C0611241FBECFEF34
:10007000D8E0DEBFCDBF11E0A0E0B1E0ECEFF6E1EB
:1000800002C005900D92A036B107D9F722E0A0E694
:10009000B1E001C01D92AC33B207E1F710E0C5E357
:1000A000D0E004C02197FE010E94A906C433D10705
:1000B000C9F70E94D0020C947C0B0C9400000895A8
:1000C000CF93DF9300D000D0CDB7DEB769837A83BA
:1000D0008B839C8340E250E060E070E08CE192E032
:1000E0000E9474088C818F939B819F938A818F9348
:1000F00099819F9380E091E09F938F938CE192E0B0
:100100009F938F930E9484080FB6F894DEBF0FBEB2
:10011000CDBF8CE192E00F900F900F900F90DF9188
:10012000CF910895CF93DF9300D000D0CDB7DEB745
:1001300069837A838B839C8340E250E060E070E0C7
:100140008CEF91E00E9474088C818F939B819F9328
:100150008A818F9399819F938CE091E09F938F93F5
:100160008CEF91E09F938F930E9484080FB6F894D0
:10017000DEBF0FBECDBF8CEF91E00F900F900F90C0
:100180000F90DF91CF910895CF93DF93CDB7DEB776
:100190002A970FB6F894DEBF0FBECDBFAB01BC01EE
:1001A00049835A838B837C8340E250E060E070E0B7
:1001B0008CED91E00E94740840E050E09A01698162
:1001C0007A818B819C810E941C0787FD4AC08BE04D
:1001D00091E089879A8769817A818B819C810E94CD
:1001E00021076D837E838F8398870E9450079B0130
:1001F000AC0169817A818B819C810E94AF0620E0ED
:1002000030E44CE156E40E9407080E9421079F93C6
:100210008F937F936F9398859F93AF81AF93BE81A8
:10022000BF938D818F939A859F93A985AF938AE120
:1002300091E09F938F938CED91E09F938F930E9419
:1002400084080FB6F894DEBF0FBECDBF8CED91E0F1
:100250002A960FB6F894DEBF0FBECDBFDF91CF91C7
:10026000089589819A81AB81BC81B05889839A8332
:10027000AB83BC83A8E1B1E0A987BA87ACCFCF93A9
:10028000DF93CDB7DEB72A970FB6F894DEBF0FBE67
:10029000CDBFAB01BC0149835A838B837C8340E291
:1002A00050E060E070E08CEB91E00E94740840E068
:1002B00050E09A0169817A818B819C810E941C07A0
:1002C00087FD4AC08BE091E089879A8769817A81AE
:1002D0008B819C810E9421076D837E838F83988709
:1002E0000E9450079B01AC0169817A818B819C81BE
:1002F0000E94AF0620E23CEB4EEB5CE40E94070854
:100300000E9421079F938F937F936F9398859F936C
:10031000AF81AF93BE81BF938D818F939A859F9359
:10032000A985AF938EE291E09F938F938CEB91E040
:100330009F938F930E9484080FB6F894DEBF0FBE80
:10034000CDBF8CEB91E02A960FB6F894DEBF0FBEBE
:10035000CDBFDF91CF91089589819A81AB81BC8116
:10036000B05889839A83AB83BC83A8E1B1E0A987A5
:10037000BA87ACCFCF93C82F49E050E060E070E07F
:1003800083EB91E00E9474088C2F90E0880F892FF6
:10039000881F990B805D8093BA0180E3C6FD81E3DD
:1003A0008093B90180E3C5FD81E38093B80180E3C8
:1003B000C4FD81E38093B70180E3C3FD81E38093B3
:1003C000B60180E3C2FD81E38093B50180E3C1FD06
:1003D00081E38093B401C170C05DC093B3018AE032
:1003E0008093BB011092BC0183EB91E0CF91089503
:1003F0001F920F920FB60F9211242F933F934F939A
:100400005F936F937F938F939F93AF93BF93EF937C
:10041000FF938091AF019091B001A091B101B09193
:10042000B2010196A11DB11D8093AF019093B0015F
:10043000A093B101B093B20116BCE091AD01F0916F
:10044000AE010995FF91EF91BF91AF919F918F916F
:100450007F916F915F914F913F912F910F900FBEC0
:100460000F901F901895FC01808121E001C0220FA0
:100470006A95EAF7822B80830895FC01208181E050
:1004800001C0880F6A95EAF78095822380830895DA
:10049000FC01808121E001C0220F6A95EAF78227E2
:1004A00080830895FC01208181E0062E01C0880F21
:1004B0000A94EAF78095822301C0440F6A95EAF70F
:1004C000842B808308950F931F93CF93DF93C9B13B
:1004D00049E050E060E070E083EB91E00E94740836
:1004E0008C2F90E0880F892F881F990B805D809357
:1004F000BA0180E3C6FD81E38093B90180E3C5FDC5
:1005000081E38093B80180E3C4FD81E38093B70168
:1005100080E3C3FD81E38093B60180E3C2FD81E304
:100520008093B50180E3C1FD81E38093B401C17084
:10053000C05DC093B3018AE08093BB011092BC01FF
:100540008091C00085FD04C08091C00085FFFCCF74
:1005500003EB11E0C0E0D0E083EB91E00E947B0868
:10056000C817D90708F011C08091C00085FFFCCFE3
:10057000F80181918F018093C600219683EB91E071
:100580000E947B08C817D90778F3DF91CF911F919C
:100590000F9108958F9389B1809360018F91189581
:1005A00000D000D000D0CDB7DEB778941092C5004F
:1005B00093E09093C4008EE38093C2008091C100C9
:1005C00088618093C10081E08093C00016BC95BD16
:1005D00014BC80936E0078942FE530E02093AD0139
:1005E0003093AE01219A229A239A249A52988093AA
:1005F000A30153988093A40154988093A5018091FE
:10060000680084608093680080916D0084608093AE
:100610006D0080916D00886080936D0080916D0009
:10062000806180936D000AE011E06091AF017091EC
:10063000B0018091B1019091B20126B52D830E9445
:10064000500725E831EB45E85AE30E940708698323
:100650007A838B839C833D81632F70E080E090E000
:100660000E9452072DEB37E346E856E30E94070845
:100670009B01AC0169817A818B819C810E94B006CB
:100680002B013C0120916601309167014091680186
:10069000509169010E94AF069F7720E030E040E072
:1006A0005FE30E94020818160CF06DC040926601CC
:1006B00050926701609268017092690189B18983E3
:1006C00049E050E060E070E083EB91E00E94740844
:1006D000998197FB882780F9805D8093BA0181E337
:1006E000E92F96FF80E38093B90181E3FE2FE5FFB8
:1006F00080E38093B80181E32F2FF4FF80E38093A0
:10070000B70181E3322F23FF80E38093B60181E3B9
:1007100032FF80E38093B501898181FFF9C281E3D3
:100720008093B40199819170905D9093B30100938F
:10073000BB011092BC018091C00085FD04C0809176
:10074000C00085FFFCCF33EBC32E31E0D32E1982DE
:100750001A8283EB91E00E947B08E981FA81E81715
:10076000F90708F010C08091C00085FFFCCFF601AA
:1007700081916F018093C60029813A812F5F3F4F9D
:1007800029833A83E6CF8091AF019091B001A09187
:10079000B101B091B20186B5F0916001F095FE8390
:1007A000E09088016091AF017091B0018091B1013A
:1007B0009091B20126B52D830E94500725E831EBB8
:1007C00045E85AE30E94070869837A838B839C83F8
:1007D0003D81632F70E080E090E00E9452072DEB96
:1007E00037E346E856E30E9407089B01AC016981A4
:1007F0007A818B819C810E94B0066983D72EEE811D
:10080000E2FF76C25091890140918A0130918B01BB
:1008100020918C01F901252F342F4F2F5E2F6981F4
:100820007D2D0E94AF069F77209184013091850134
:1008300040918601509187010E94020818160CF41D
:1008400053C2BE2CB12680E0809388018091AF0115
:100850009091B001A091B101B091B20186B5A09084
:100860007B016091AF017091B0018091B1019091D5
:10087000B201F6B5FD830E94500725E831EB45E84B
:100880005AE30E94070869837A838B839C832D81B6
:10089000622F70E080E090E00E9452072DEB37E37A
:1008A00046E856E30E9407089B01AC0169817A8102
:1008B0008B819C810E94B0063E8133FF08C250911B
:1008C0007C0140917D0130917E0120917F01F901F1
:1008D000252F342F4F2F5E2F0E94AF069F77209138
:1008E0007701309178014091790150917A010E940D
:1008F000020818160CF4E8C180E080937B01809117
:10090000AF019091B001A091B101B091B20186B553
:1009100080916E018D836091AF017091B0018091E3
:10092000B1019091B201D6B40E94500725E831EB95
:1009300045E85AE30E94070869837A838B839C8386
:100940006D2D70E080E090E00E9452072DEB37E3C0
:1009500046E856E30E9407089B01AC0169817A8151
:100960008B819C810E94B006EE81E4FFA0C1509172
:100970006F01409170013091710120917201F90174
:10098000252F342F4F2F5E2F0E94AF069F77209187
:100990006A0130916B0140916C0150916D010E9490
:1009A000020818160CF02CC110936E01A110B2C1F0
:1009B000D0906301B0926301DE2009F0FDC09091F8
:1009C0006501892F8D2580936501E090610121E00B
:1009D0009D1120E020936101E82209F0C9C09F2DFC
:1009E0009E25292F282321272093920121E0FE1004
:1009F00020E0822381278093930135B13E7F2091AF
:100A00009101232B25B935B120919201220F3D7F11
:100A1000232B25B980FD2A9A80FF2A9825B1809141
:100A20009401880F880F880F277F822B85B925B105
:100A3000809195018295807F2F7E822B85B925B18B
:100A4000809196018295880F807E2F7D822B85B9BB
:100A500025B1809197018295880F880F807C2F7B2C
:100A6000822B85B98091980180FD2F9A80FF2F9865
:100A700028B12E7F80919901822B88B928B180916D
:100A80009A01880F2D7F822B88B928B180919B0114
:100A9000880F880F2B7F822B88B928B180919C0109
:100AA000880F880F880F277F822B88B928B1809103
:100AB0009D018295807F2F7E822B88B928B18091FD
:100AC0009E018295880F807E2F7D822B88B928B168
:100AD00080919F018295880F880F807C2F7B822BCD
:100AE00088B98091A00180FD479A80FF47982BB17B
:100AF0002E7F8091A101822B8BB92BB18091A20115
:100B0000880F2D7F822B8BB92BB18091A301880F89
:100B1000880F2B7F822B8BB92BB18091A401880F7A
:100B2000880F880F277F822B8BB92BB18091A5016D
:100B30008295807F2F7E822B8BB92BB18091A6016D
:100B40008295880F807E2F7D822B8BB92BB180916F
:100B5000A7018295880F880F807C2F7B822B8BB911
:100B60008091A80180FD5F9A80FF5F98F92E5DCD8E
:100B70008091C00085FFFCCF8DE5C82E81E0D82E86
:100B800019821A828DE591E00E947B08E981FA8141
:100B9000E817F90708F0B9C08091C00085FFFCCFC5
:100BA000F60181916F018093C60029813A812F5F00
:100BB0003F4F29833A83E6CF8091C00085FFFCCF69
:100BC0009DE5A92E91E0B92E19821A828DE591E05A
:100BD0000E947B08E981FA81E817F90708F0EFCE57
:100BE0008091C00085FFFCCFF50181915F0180936A
:100BF000C60029813A812F5F3F4F29833A83E6CF90
:100C000010926E01FD81F11509F4D0CEA11024C01F
:100C10008091C00085FFFCCF2FE4C22E21E0D22EB0
:100C200019821A828FE491E00E947B08E981FA819F
:100C3000E817F90708F0BCCE8091C00085FFFCCF13
:100C4000F60181916F018093C60029813A812F5F5F
:100C50003F4F29833A83E6CF8091C00085FFFCCFC8
:100C600022E431E029833A83C12CD12C82E491E043
:100C70000E947B08C816D90608F015C08091C000F4
:100C800085FFFCCFE981FA818191E983FA83809322
:100C9000C600FFEFCF1ADF0A82E491E00E947B08D2
:100CA000C816D90658F3A11409F482CEB1CF562F35
:100CB000472F382F292F60936F0170937001809315
:100CC0007101909372015BCE81E0A12C16CE562F5C
:100CD000472F382F292F60937C0170937D018093DB
:100CE0007E0190937F01F3CD81E0B82EE12CACCD55
:100CF000382F292F60938901D0928A0180938B012C
:100D000090938C01562F4D2D85CD8091650167CE36
:100D100080E306CDA12CA0CF8DEC9CECACECBDE328
:100D20008093840190938501A0938601B0938701FD
:100D30008093770190937801A0937901B0937A0121
:100D400080936A0190936B01A0936C01B0936D0145
:100D50000895EE0FFF1F0590F491E02D099450586F
:100D6000BB27AA270E94C7060C94C8070E94BA078F
:100D700038F00E94C10720F039F49F3F19F426F49F
:100D80000C94B7070EF4E095E7FB0C94B107E92F3C
:100D90000E94D90758F3BA176207730784079507AB
:100DA00020F079F4A6F50C94FB070EF4E0950B2ED9
:100DB000BA2FA02D0B01B90190010C01CA01A001AD
:100DC0001124FF27591B99F0593F50F4503E68F108
:100DD0001A16F040A22F232F342F4427585FF3CF49
:100DE000469537952795A795F0405395C9F77EF41A
:100DF0001F16BA0B620B730B840BBAF09150A1F063
:100E0000FF0FBB1F661F771F881FC2F70EC0BA0FE8
:100E1000621F731F841F48F4879577956795B79570
:100E2000F7959E3F08F0B0CF9395880F08F099276B
:100E3000EE0F9795879508950E948D0708F481E03D
:100E400008950E94E10788F09F5798F0B92F9927DD
:100E5000B751B0F0E1F0660F771F881F991F1AF0A5
:100E6000BA95C9F714C0B13091F00E94FB07B1E008
:100E700008950C94FB07672F782F8827B85F39F007
:100E8000B93FCCF3869577956795B395D9F73EF43E
:100E900090958095709561957F4F8F4F9F4F0895E6
:100EA000E89409C097FB3EF4909580957095619504
:100EB0007F4F8F4F9F4F9923A9F0F92F96E9BB27BA
:100EC0009395F695879577956795B795F111F8CF36
:100ED000FAF4BB0F11F460FF1BC06F5F7F4F8F4FA1
:100EE0009F4F16C0882311F096E911C0772321F097
:100EF0009EE8872F762F05C0662371F096E8862F2F
:100F000070E060E02AF09A95660F771F881FDAF785
:100F1000880F9695879597F90895990F0008550FB2
:100F2000AA0BE0E8FEEF16161706E807F907C0F06F
:100F300012161306E407F50798F0621B730B840B77
:100F4000950B39F40A2661F0232B242B252B21F451
:100F500008950A2609F4A140A6958FEF811D811DF1
:100F6000089597F99F6780E870E060E008959FEF2B
:100F700080EC089500240A94161617061806090630
:100F8000089500240A9412161306140605060895FF
:100F9000092E0394000C11F4882352F0BB0F40F487
:100FA000BF2B11F460FF04C06F5F7F4F8F4F9F4FC7
:100FB000089557FD9058440F551F59F05F3F71F049
:100FC0004795880F97FB991F61F09F3F79F08795B0
:100FD0000895121613061406551FF2CF4695F1DF39
:100FE00008C0161617061806991FF1CF86957105C9
:100FF000610508940895E894BB2766277727CB01FD
:1010000097F908950E948D0708F48FEF08950E94C4
:101010001A080C94C8070E94BA0738F00E94C1074A
:1010200020F0952311F00C94B1070C94B70711240C
:101030000C94FC070E94D90770F3959FC1F3950F9C
:1010400050E0551F629FF001729FBB27F00DB11D4C
:10105000639FAA27F00DB11DAA1F649F6627B00DDC
:10106000A11D661F829F2227B00DA11D621F739FC5
:10107000B00DA11D621F839FA00D611D221F749FD3
:101080003327A00D611D231F849F600D211D822F1A
:10109000762F6A2F11249F5750409AF0F1F0882341
:1010A0004AF0EE0FFF1FBB1F661F771F881F91506E
:1010B0005040A9F79E3F510580F00C94B1070C9465
:1010C000FC075F3FE4F3983ED4F3869577956795E8
:1010D000B795F795E7959F5FC1F7FE2B880F911D98
:1010E0009695879597F90895DC0101C06D9341505D
:1010F0005040E0F70895FC0101900020E9F7809549
:1011000090958E0F9F1F0895AEE0B0E0EAE8F8E0FA
:101110000C94550B86E08C832B893C8929833A8378
:101120008FEF9FE78D839E83AE01495E5F4F6D8990
:101130007E89CE0101960E94A808EF81F8852B894F
:101140003C89E20FF31F10822E96E2E00C94710BA3
:10115000ABE0B0E0EEEAF8E00C94480B6C017B01E8
:101160008A01FC0116821782838181FFDFC13AE088
:10117000532EF6012381F70123FD859123FF8191F1
:101180007F01811509F437C1853239F423FD95912A
:1011900023FF91917F01953229F4B60190E00E94DE
:1011A000AF0AE7CF30E0912C612C712CF0E27F1672
:1011B00040F59B32D9F058F49032D1F09332F1F0EF
:1011C0009E3291F576FC17C1689476F806C09D3280
:1011D00091F09033C1F4689470F8F70123FD959174
:1011E00023FF91917F019111E1CF28C0689471F89C
:1011F000689472F8F2CF689473F8EFCF689474F83B
:10120000ECCF77FC1BC080ED890F8A30C8F676FEE4
:1012100005C0959C800D1124982EDFCF659C800D14
:101220001124682E7F2AD9CF9C3619F4689477F858
:10123000D4CF9C3409F445C0983679F2892F8F7D3C
:101240008554833008F43FC0933609F461C0933766
:1012500009F46BC0933509F477C0943619F09936C8
:1012600009F0A4C0F80177FE9AC061917191819153
:1012700091918F01272D2F76822E97FF04C00E9417
:101280003D0B689487F82AE030E05E014FEFA41A26
:10129000B40AA5010E94DF0A782E7A1886FECFC014
:1012A000882D8E7F791408F0C9C084FE1DC182FC90
:1012B00011C12EEE8222B92C882D867809F4CBC07C
:1012C0000EC131E08ACF311501F1085F1F4F8FE366
:1012D000898321E0822E912C5E012FEFA21AB20A9F
:1012E000E89477F873FC03C086149104F0F181143C
:1012F000910409F041C0611409F43BCFB60180E2CA
:1013000090E00E94AF0A6A94F6CF0C5F1F4FDFCFC8
:10131000F801808189830E5F1F4F91E0892E912C07
:101320005E01FFEFAF1ABF0ADBCFF801A190B190C9
:101330008F01692D70E076FC02C06FEF7FEFC50171
:101340000E94A40A4C01CCCFF801A190B1908F016A
:10135000692D70E076FC02C06FEF7FEFC5010E943F
:10136000990A4C01689477F8BDCFB60180E290E00D
:101370000E94AF0A6A94B8CFF50177FC859177FE99
:1013800081915F01B60190E00E94AF0A81E0611097
:1013900001C080E0681AF1E08F1A9108A8CF61912E
:1013A0007191872F880F880B982F63CF9537C9F4D9
:1013B000872CE89484F82AE030E0F80187FE39C0F1
:1013C00061917191819191918F015E01FFEFAF1A4F
:1013D000BF0AA5010E94DF0A782E7A18E89487F8E0
:1013E0005DCF872D897F882E903799F058F49835F6
:1013F000A9F09F36D9F0F601868197812B96EFE010
:101400000C94640B9837B9F774FC05C020E130E008
:10141000D4CF689484F8689482F8F8CF74FE03C03F
:10142000E72DE6608E2E20E132E0C7CF28E030E0E5
:10143000C4CF6191719180E090E0C6CF882EB72C27
:1014400084FE3ACFFE01E70DF11D8081803309F063
:1014500044C049EE842283FC0EC080FE51C0972C0C
:10146000B61418F4960C9B18B62C862D8B196B1499
:1014700008F480E0B80EB61408F044C06B1884FE7F
:1014800043C0B60180E390E00E94AF0A82FE09C02B
:1014900088E590E081FC02C088E790E0B6010E94F8
:1014A000AF0A7914E0F15E018FEFA81AB80A7A94B6
:1014B00082E0882E912C8C0E9D1E870C911CF401CD
:1014C00082914F01B60190E00E94AF0A8A149B04FA
:1014D000B1F711CFB92C882EB5CF82FC02C0B394DE
:1014E000BACFB394B394B7CFB92C882EE5CEB6015A
:1014F00080E290E00E94AF0AA394A614C0F3B5CF97
:10150000AB2CFBCF612CBBCF882D867851F280E2CB
:1015100081FC8BE287FC8DE2B60190E0C0CFB60182
:1015200080E390E00E94AF0A9A94BBCF8FEF9FEFC9
:1015300065CFFC010590615070400110D8F780958F
:1015400090958E0F9F1F0895FC016150704001908F
:101550000110D8F7809590958E0F9F1F08950F93D7
:101560001F93CF93DF93182F092FEB018B8181FD00
:1015700009C00FEF1FEF812F902FDF91CF911F91A7
:101580000F91089582FF14C02E813F818C819D812F
:10159000281739073CF4E881F981CF010196888347
:1015A000998310838E819F8101968E839F83E3CFE1
:1015B000E885F985812F0995892BA1F3DACFFA0106
:1015C000AA27283051F1203181F1E8946F936E7F82
:1015D0006E5F7F4F8F4F9F4FAF4FB1E03ED0B4E073
:1015E0003CD0670F781F891F9A1FA11D680F791FB4
:1015F0008A1F911DA11D6A0F711D811D911DA11DC5
:1016000020D009F468943F912AE0269F11243019D4
:10161000305D3193DEF6CF010895462F4770405D6F
:101620004193B3E00FD0C9F7F6CF462F4F70405D1E
:101630004A3318F0495D31FD4052419302D0A9F779
:10164000EACFB4E0A6959795879577956795BA9573
:10165000C9F700976105710508959B01AC010A2E39
:1016600006945795479537952795BA95C9F7620F10
:10167000731F841F951FA01D0895909580957095E8
:1016800061957F4F8F4F9F4F08952F923F924F92BA
:101690005F926F927F928F929F92AF92BF92CF9202
:1016A000DF92EF92FF920F931F93CF93DF93CDB70B
:1016B000DEB7CA1BDB0B0FB6F894DEBF0FBECDBF83
:1016C00009942A88398848885F846E847D848C8454
:1016D0009B84AA84B984C884DF80EE80FD800C815D
:1016E0001B81AA81B981CE0FD11D0FB6F894DEBF40
:0C16F0000FBECDBFED010895F894FFCFB0
:1016FC0056616C75653A20256C690A0056616C75EB
:10170C00653A20256C750A002D0056616C75653A9A
:10171C00202573256C752E2530346C750A005661A6
:10172C006C75653A202573256C752E2530386C75D3
:10173C000A004F50454E20454E4453544F500043E1
:10174C004C4F534520454E4453544F50004F4E0080
:00000001FF
