:100000000C9435000C945D000C945D000C945D0024
:100010000C945D000C94CA020C945D000C945D007D
:100020000C945D000C945D000C945D000C945D00DC
:100030000C945D000C945D000C945D000C945D00CC
:100040000C94F8010C945D000C945D000C945D0020
:100050000C945D000C945D000C945D000C945D00AC
:100060000C945D000C945D004E0511241FBECFEF73
:10007000D8E0DEBFCDBF11E0A0E0B1E0E0E6F4E102
:1000800002C005900D92A634B107D9F722E0A6E48C
:10009000B1E001C01D92A830B207E1F710E0C5E35E
:1000A000D0E004C02197FE010E945B05C433D10754
:1000B000C9F70E94D0020C942E0A0C9400000895F7
:1000C000CF93DF9300D000D0CDB7DEB769837A83BA
:1000D0008B839C8340E250E060E070E088EE91E02A
:1000E0000E9426078C818F939B819F938A818F9397
:1000F00099819F9380E091E09F938F9388EE91E0A8
:100100009F938F930E9436070FB6F894DEBF0FBE01
:10011000CDBF88EE91E00F900F900F900F90DF9180
:10012000CF910895CF93DF9300D000D0CDB7DEB745
:1001300069837A838B839C8340E250E060E070E0C7
:1001400088EC91E00E9426078C818F939B819F937E
:100150008A818F9399819F938CE091E09F938F93F5
:1001600088EC91E09F938F930E9436070FB6F89426
:10017000DEBF0FBECDBF88EC91E00F900F900F90C7
:100180000F90DF91CF910895CF93DF93CDB7DEB776
:100190002A970FB6F894DEBF0FBECDBFAB01BC01EE
:1001A00049835A838B837C8340E250E060E070E0B7
:1001B00088EA91E00E94260740E050E09A016981B8
:1001C0007A818B819C810E94CE0587FD4AC08BE09D
:1001D00091E089879A8769817A818B819C810E94CD
:1001E000D3056D837E838F8398870E9402069B01CF
:1001F000AC0169817A818B819C810E94610520E03C
:1002000030E44CE156E40E94B9060E94D3059F9366
:100210008F937F936F9398859F93AF81AF93BE81A8
:10022000BF938D818F939A859F93A985AF938AE120
:1002300091E09F938F9388EA91E09F938F930E9420
:1002400036070FB6F894DEBF0FBECDBF88EA91E047
:100250002A960FB6F894DEBF0FBECDBFDF91CF91C7
:10026000089589819A81AB81BC81B05889839A8332
:10027000AB83BC83A8E1B1E0A987BA87ACCFCF93A9
:10028000DF93CDB7DEB72A970FB6F894DEBF0FBE67
:10029000CDBFAB01BC0149835A838B837C8340E291
:1002A00050E060E070E088E891E00E94260740E0BE
:1002B00050E09A0169817A818B819C810E94CE05F0
:1002C00087FD4AC08BE091E089879A8769817A81AE
:1002D0008B819C810E94D3056D837E838F83988759
:1002E0000E9402069B01AC0169817A818B819C810D
:1002F0000E94610520E23CEB4EEB5CE40E94B906F3
:100300000E94D3059F938F937F936F9398859F93BC
:10031000AF81AF93BE81BF938D818F939A859F9359
:10032000A985AF938EE291E09F938F9388E891E047
:100330009F938F930E9436070FB6F894DEBF0FBECF
:10034000CDBF88E891E02A960FB6F894DEBF0FBEC5
:10035000CDBFDF91CF91089589819A81AB81BC8116
:10036000B05889839A83AB83BC83A8E1B1E0A987A5
:10037000BA87ACCFCF93C82F49E050E060E070E07F
:100380008FE791E00E9426078C2F90E0880F892F3D
:10039000881F990B805D8093860180E3C6FD81E311
:1003A0008093850180E3C5FD81E38093840180E330
:1003B000C4FD81E38093830180E3C3FD81E38093E7
:1003C000820180E3C2FD81E38093810180E3C1FD6E
:1003D00081E380938001C170C05DC0937F018AE09A
:1003E00080938701109288018FE791E0CF91089563
:1003F0001F920F920FB60F9211242F933F934F939A
:100400005F936F937F938F939F93AF93BF93EF937C
:10041000FF9380917B0190917C01A0917D01B0912F
:100420007E010196A11DB11D80937B0190937C01FB
:10043000A0937D01B0937E0116BCE0917901F0910B
:100440007A010995FF91EF91BF91AF919F918F91A3
:100450007F916F915F914F913F912F910F900FBEC0
:100460000F901F901895FC01808121E001C0220FA0
:100470006A95EAF7822B80830895FC01208181E050
:1004800001C0880F6A95EAF78095822380830895DA
:10049000FC01808121E001C0220F6A95EAF78227E2
:1004A00080830895FC01208181E0062E01C0880F21
:1004B0000A94EAF78095822301C0440F6A95EAF70F
:1004C000842B808308950F931F93CF93DF93C9B13B
:1004D00049E050E060E070E08FE791E00E9426077D
:1004E0008C2F90E0880F892F881F990B805D809357
:1004F000860180E3C6FD81E38093850180E3C5FD2D
:1005000081E38093840180E3C4FD81E380938301D0
:1005100080E3C3FD81E38093820180E3C2FD81E338
:100520008093810180E3C1FD81E380938001C170EC
:10053000C05DC0937F018AE080938701109288019B
:100540008091C00085FD04C08091C00085FFFCCF74
:100550000FE711E0C0E0D0E08FE791E00E942D07A7
:10056000C817D90708F011C08091C00085FFFCCFE3
:10057000F80181918F018093C60021968FE791E069
:100580000E942D07C817D90778F3DF91CF911F91EB
:100590000F9108958F9389B1809346018F9118959B
:1005A00000D000D000D0CDB7DEB778941092C5004F
:1005B00093E09093C4008EE38093C2008091C100C9
:1005C00088618093C10081E08093C00016BC95BD16
:1005D00014BC80936E0078942FE530E0209379016D
:1005E00030937A01219A229A239A249A52988093DE
:1005F0006F018091680084608093680080916D0035
:10060000846080936D000AE011E060917B0170913D
:100610007C0180917D0190917E0126B52D830E9401
:10062000020625E831EB45E85AE30E94B9066983E2
:100630007A838B839C833D81632F70E080E090E020
:100640000E9404062DEB37E346E856E30E94B90604
:100650009B01AC0169817A818B819C810E9462053A
:100660004B015C0120914C0130914D0140914E01B4
:1006700050914F010E9461059F7720E030E040E0FB
:100680005FE30E94B40618160CF06DC080924C0116
:1006900090924D01A0924E01B0924F0189B1898391
:1006A00049E050E060E070E08FE791E00E942607AB
:1006B000998197FB882780F9805D8093860181E38B
:1006C000E92F96FF80E38093850181E3FE2FE5FF0C
:1006D00080E38093840181E32F2FF4FF80E38093F4
:1006E000830181E3322F23FF80E38093820181E342
:1006F00032FF80E380938101898181FFCDC181E355
:100700008093800199819170905D90937F01009317
:100710008701109288018091C00085FD04C08091FE
:10072000C00085FFFCCF2FE7C22E21E0D22E198218
:100730001A828FE791E00E942D07E981FA81E8177C
:10074000F90708F010C08091C00085FFFCCFF601CA
:1007500081916F018093C60029813A812F5F3F4FBD
:1007600029833A83E6CF80917B0190917C01A0910F
:100770007D01B0917E0186B5F0915401FD836091B9
:100780007B0170917C0180917D0190917E0126B565
:100790002E830E94020625E831EB45E85AE30E94C9
:1007A000B90669837A838B839C833E81632F70E0D3
:1007B00080E090E00E9404062DEB37E346E856E324
:1007C0000E94B9069B01AC0169817A818B819C8171
:1007D0000E9462052091460122FD4EC150915501B3
:1007E000409156013091570120915801F901252F70
:1007F000342F4F2F5E2F0E9461059F77209150016B
:100800003091510140915201509153010E94B40620
:10081000181684F1109254018D81811569F1B09000
:10082000490110924901B11001C028C08091C00057
:1008300085FFFCCF92E4C92E91E0D92E19821A824D
:1008400082E491E00E942D07E981FA81E817F90717
:1008500008F015C08091C00085FFFCCFF6018191A2
:100860006F018093C60029813A812F5F3F4F298312
:100870003A83E6CF1093540110934901B12C909123
:100880004B01892F8B2580934B01D090470121E0AC
:100890009B1120E020934701D82209F0C9C09F2D69
:1008A0009D25292F2823212720935E0121E0FD107B
:1008B00020E08223812780935F0135B13E7F209124
:1008C0005D01232B25B935B120915E01220F3D7FBB
:1008D000232B25B980FD2A9A80FF2A9825B1809183
:1008E0006001880F880F880F277F822B85B925B17B
:1008F000809161018295807F2F7E822B85B925B101
:10090000809162018295880F807E2F7D822B85B930
:1009100025B1809163018295880F880F807C2F7BA1
:10092000822B85B98091640180FD2F9A80FF2F98DA
:1009300028B12E7F80916501822B88B928B18091E2
:100940006601880F2D7F822B88B928B180916701BD
:10095000880F880F2B7F822B88B928B1809168017E
:10096000880F880F880F277F822B88B928B1809144
:1009700069018295807F2F7E822B88B928B1809172
:100980006A018295880F807E2F7D822B88B928B1DD
:1009900080916B018295880F880F807C2F7B822B42
:1009A00088B980916C0180FD479A80FF47982BB1F0
:1009B0002E7F80916D01822B8BB92BB180916E01BE
:1009C000880F2D7F822B8BB92BB180916F01880FFF
:1009D000880F2B7F822B8BB92BB180917001880FF0
:1009E000880F880F277F822B8BB92BB180917101E3
:1009F0008295807F2F7E822B8BB92BB180917201E3
:100A00008295880F807E2F7D822B8BB92BB18091B0
:100A100073018295880F880F807C2F7B822B8BB986
:100A20008091740180FD5F9A80FF5F98F92EEDCD73
:100A30008091C00085FFFCCF82E4A82E81E0B82E13
:100A400019821A8282E491E00E942D07E981FA81DD
:100A5000E817F90708F01DC08091C00085FFFCCFA2
:100A6000F50181915F018093C60029813A812F5F52
:100A70003F4F29833A83E6CF562F472F382F292F10
:100A800060935501709356018093570190935801DC
:100A9000ADCE80914B0103CF80E332CE8DEC9CEC48
:100AA000ACECBDE38093500190935101A0935201AF
:100AB000B09353010895EE0FFF1F0590F491E02DC0
:100AC00009945058BB27AA270E9479050C947A06EE
:100AD0000E946C0638F00E94730620F039F49F3FA4
:100AE00019F426F40C9469060EF4E095E7FB0C94D7
:100AF0006306E92F0E948B0658F3BA176207730743
:100B00008407950720F079F4A6F50C94AD060EF451
:100B1000E0950B2EBA2FA02D0B01B90190010C010D
:100B2000CA01A0011124FF27591B99F0593F50F425
:100B3000503E68F11A16F040A22F232F342F44277D
:100B4000585FF3CF469537952795A795F040539575
:100B5000C9F77EF41F16BA0B620B730B840BBAF045
:100B60009150A1F0FF0FBB1F661F771F881FC2F7B0
:100B70000EC0BA0F621F731F841F48F487957795C4
:100B80006795B795F7959E3F08F0B0CF9395880F7E
:100B900008F09927EE0F9795879508950E943F06D4
:100BA00008F481E008950E94930688F09F5798F01A
:100BB000B92F9927B751B0F0E1F0660F771F881F62
:100BC000991F1AF0BA95C9F714C0B13091F00E947C
:100BD000AD06B1E008950C94AD06672F782F8827F5
:100BE000B85F39F0B93FCCF3869577956795B395A3
:100BF000D9F73EF490958095709561957F4F8F4F12
:100C00009F4F0895E89409C097FB3EF49095809516
:100C1000709561957F4F8F4F9F4F9923A9F0F92FC2
:100C200096E9BB279395F695879577956795B79540
:100C3000F111F8CFFAF4BB0F11F460FF1BC06F5F26
:100C40007F4F8F4F9F4F16C0882311F096E911C038
:100C5000772321F09EE8872F762F05C0662371F059
:100C600096E8862F70E060E02AF09A95660F771F6D
:100C7000881FDAF7880F9695879597F90895990F49
:100C80000008550FAA0BE0E8FEEF16161706E80756
:100C9000F907C0F012161306E407F50798F0621B77
:100CA000730B840B950B39F40A2661F0232B242B4C
:100CB000252B21F408950A2609F4A140A6958FEF6B
:100CC000811D811D089597F99F6780E870E060E0BD
:100CD00008959FEF80EC089500240A9416161706D5
:100CE00018060906089500240A941216130614061D
:100CF00005060895092E0394000C11F4882352F080
:100D0000BB0F40F4BF2B11F460FF04C06F5F7F4F37
:100D10008F4F9F4F089557FD9058440F551F59F01E
:100D20005F3F71F04795880F97FB991F61F09F3FD8
:100D300079F087950895121613061406551FF2CF01
:100D40004695F1DF08C0161617061806991FF1CF51
:100D500086957105610508940895E894BB27662778
:100D60007727CB0197F908950E943F0608F48FEF8B
:100D700008950E94CC060C947A060E946C0638F006
:100D80000E94730620F0952311F00C9463060C94D6
:100D9000690611240C94AE060E948B0670F3959F91
:100DA000C1F3950F50E0551F629FF001729FBB2762
:100DB000F00DB11D639FAA27F00DB11DAA1F649FFE
:100DC0006627B00DA11D661F829F2227B00DA11DB1
:100DD000621F739FB00DA11D621F839FA00D611D37
:100DE000221F749F3327A00D611D231F849F600D58
:100DF000211D822F762F6A2F11249F5750409AF081
:100E0000F1F088234AF0EE0FFF1FBB1F661F771F0C
:100E1000881F91505040A9F79E3F510580F00C94D7
:100E200063060C94AE065F3FE4F3983ED4F38695D8
:100E300077956795B795F795E7959F5FC1F7FE2B77
:100E4000880F911D9695879597F90895DC0101C04B
:100E50006D9341505040E0F70895FC01019000204F
:100E6000E9F7809590958E0F9F1F0895AEE0B0E052
:100E7000ECE3F7E00C94070A86E08C832B893C892D
:100E800029833A838FEF9FE78D839E83AE01495E6E
:100E90005F4F6D897E89CE0101960E945A07EF81CE
:100EA000F8852B893C89E20FF31F10822E96E2E031
:100EB0000C94230AABE0B0E0E0E6F7E00C94FA090A
:100EC0006C017B018A01FC0116821782838181FFFC
:100ED000DFC13AE0532EF6012381F70123FD85910E
:100EE00023FF81917F01811509F437C1853239F4DF
:100EF00023FD959123FF91917F01953229F4B6014D
:100F000090E00E946109E7CF30E0912C612C712CB8
:100F1000F0E27F1640F59B32D9F058F49032D1F0D0
:100F20009332F1F09E3291F576FC17C1689476F811
:100F300006C09D3291F09033C1F4689470F8F701C7
:100F400023FD959123FF91917F019111E1CF28C05D
:100F5000689471F8689472F8F2CF689473F8EFCFE0
:100F6000689474F8ECCF77FC1BC080ED890F8A3051
:100F7000C8F676FE05C0959C800D1124982EDFCF13
:100F8000659C800D1124682E7F2AD9CF9C3619F4D8
:100F9000689477F8D4CF9C3409F445C0983679F238
:100FA000892F8F7D8554833008F43FC0933609F430
:100FB00061C0933709F46BC0933509F477C0943658
:100FC00019F0993609F0A4C0F80177FE9AC0619132
:100FD0007191819191918F01272D2F76822E97FF0C
:100FE00004C00E94EF09689487F82AE030E05E01AF
:100FF0004FEFA41AB40AA5010E949109782E7A181D
:1010000086FECFC0882D8E7F791408F0C9C084FE7B
:101010001DC182FC11C12EEE8222B92C882D86784A
:1010200009F4CBC00EC131E08ACF311501F1085F60
:101030001F4F8FE3898321E0822E912C5E012FEFD9
:10104000A21AB20AE89477F873FC03C086149104DC
:10105000F0F18114910409F041C0611409F43BCF0F
:10106000B60180E290E00E9461096A94F6CF0C5FBD
:101070001F4FDFCFF801808189830E5F1F4F91E002
:10108000892E912C5E01FFEFAF1ABF0ADBCFF8016A
:10109000A190B1908F01692D70E076FC02C06FEFD6
:1010A0007FEFC5010E9456094C01CCCFF801A190F9
:1010B000B1908F01692D70E076FC02C06FEF7FEF79
:1010C000C5010E944B094C01689477F8BDCFB60169
:1010D00080E290E00E9461096A94B8CFF50177FC44
:1010E000859177FE81915F01B60190E00E946109D0
:1010F00081E0611001C080E0681AF1E08F1A910868
:10110000A8CF61917191872F880F880B982F63CF9B
:101110009537C9F4872CE89484F82AE030E0F80188
:1011200087FE39C061917191819191918F015E012A
:10113000FFEFAF1ABF0AA5010E949109782E7A1815
:10114000E89487F85DCF872D897F882E903799F0B6
:1011500058F49835A9F09F36D9F0F6018681978129
:101160002B96EFE00C94160A9837B9F774FC05C07B
:1011700020E130E0D4CF689484F8689482F8F8CF06
:1011800074FE03C0E72DE6608E2E20E132E0C7CF6B
:1011900028E030E0C4CF6191719180E090E0C6CF4B
:1011A000882EB72C84FE3ACFFE01E70DF11D808119
:1011B000803309F044C049EE842283FC0EC080FED7
:1011C00051C0972CB61418F4960C9B18B62C862D8B
:1011D0008B196B1408F480E0B80EB61408F044C004
:1011E0006B1884FE43C0B60180E390E00E94610961
:1011F00082FE09C088E590E081FC02C088E790E0AB
:10120000B6010E9461097914E0F15E018FEFA81A1E
:10121000B80A7A9482E0882E912C8C0E9D1E870C41
:10122000911CF40182914F01B60190E00E94610986
:101230008A149B04B1F711CFB92C882EB5CF82FC4C
:1012400002C0B394BACFB394B394B7CFB92C882E5D
:10125000E5CEB60180E290E00E946109A394A61455
:10126000C0F3B5CFAB2CFBCF612CBBCF882D8678DC
:1012700051F280E281FC8BE287FC8DE2B60190E0C6
:10128000C0CFB60180E390E00E9461099A94BBCF81
:101290008FEF9FEF65CFFC0105906150704001100A
:1012A000D8F7809590958E0F9F1F0895FC0161508F
:1012B000704001900110D8F7809590958E0F9F1F78
:1012C00008950F931F93CF93DF93182F092FEB01EE
:1012D0008B8181FD09C00FEF1FEF812F902FDF91D0
:1012E000CF911F910F91089582FF14C02E813F81ED
:1012F0008C819D81281739073CF4E881F981CF0161
:1013000001968883998310838E819F8101968E83B5
:101310009F83E3CFE885F985812F0995892BA1F378
:10132000DACFFA01AA27283051F1203181F1E8946F
:101330006F936E7F6E5F7F4F8F4F9F4FAF4FB1E0C8
:101340003ED0B4E03CD0670F781F891F9A1FA11DC3
:10135000680F791F8A1F911DA11D6A0F711D811DC4
:10136000911DA11D20D009F468943F912AE0269F89
:1013700011243019305D3193DEF6CF010895462FE8
:101380004770405D4193B3E00FD0C9F7F6CF462FC9
:101390004F70405D4A3318F0495D31FD4052419332
:1013A00002D0A9F7EACFB4E0A695979587957795EF
:1013B0006795BA95C9F700976105710508959B0176
:1013C000AC010A2E06945795479537952795BA95FF
:1013D000C9F7620F731F841F951FA01D0895909574
:1013E0008095709561957F4F8F4F9F4F08952F92F5
:1013F0003F924F925F926F927F928F929F92AF92A5
:10140000BF92CF92DF92EF92FF920F931F93CF93F1
:10141000DF93CDB7DEB7CA1BDB0B0FB6F894DEBF88
:101420000FBECDBF09942A88398848885F846E84AE
:101430007D848C849B84AA84B984C884DF80EE80F8
:10144000FD800C811B81AA81B981CE0FD11D0FB601
:10145000F894DEBF0FBECDBFED010895F894FFCF25
:1014600056616C75653A20256C690A0056616C7589
:10147000653A20256C750A002D0056616C75653A39
:10148000202573256C752E2530346C750A00566145
:101490006C75653A202573256C752E2530386C7572
:0614A0000A004F4E00009F
:00000001FF
