:100000000C9435000C945D000C945D000C945D0024
:100010000C945D000C94DC020C945D000C945D006B
:100020000C945D000C945D000C945D000C945D00DC
:100030000C945D000C945D000C945D000C945D00CC
:100040000C94ED010C945D000C945D000C945D002B
:100050000C945D000C945D000C945D000C945D00AC
:100060000C945D000C945D002A0511241FBECFEF97
:10007000D8E0DEBFCDBF11E0A0E0B1E0E8EDF3E1F4
:1000800002C005900D92A634B107D9F722E0A6E48C
:10009000B1E001C01D92A630B207E1F710E0C5E360
:1000A000D0E004C02197FE010E943705C433D10778
:1000B000C9F70E94EB020C94EA090C940000089521
:1000C0000F931F93CF93DF93EB01182F092F40E27B
:1000D00050E070E060E086EE91E00E9402070F932E
:1000E0001F93DF93CF9380E091E09F938F9386EEF1
:1000F00091E09F938F930E9412078DB79EB7089649
:100100000FB6F8949EBF0FBE8DBF86EE91E0DF91D3
:10011000CF911F910F9108950F931F93CF93DF936A
:10012000EB01182F092F40E250E070E060E086EC10
:1001300091E00E9402070F931F93DF93CF938CE00F
:1001400091E09F938F9386EC91E09F938F930E9411
:1001500012078DB79EB708960FB6F8949EBF0FBED4
:100160008DBF86EC91E0DF91CF911F910F910895A3
:10017000AF92BF92CF92DF92EF92FF920F931F93B5
:10018000CF93DF936B017C0140E250E070E060E0D0
:1001900086EA91E00E94020720E030E0A901C70151
:1001A000B6010E94AA05CBE0D1E087FF06C0F7FAAE
:1001B000F094F7F8F094C8E1D1E0C701B6010E94CD
:1001C000AF05162F072FB82EA92E0E94DE059B0122
:1001D000AC01C701B6010E943D0520E030E44CE1CE
:1001E00056E40E9495060E94AF059F938F937F93DC
:1001F0006F93AF92BF920F931F93DF93CF938AE1D8
:1002000091E09F938F9386EA91E09F938F930E9452
:1002100012078DB79EB70E960FB6F8949EBF0FBE0D
:100220008DBF86EA91E0DF91CF911F910F91FF90F2
:10023000EF90DF90CF90BF90AF900895AF92BF92B4
:10024000CF92DF92EF92FF920F931F93CF93DF93A2
:100250006B017C0140E250E070E060E086E891E0F4
:100260000E94020720E030E0A901C701B6010E9408
:10027000AA05CBE0D1E087FF06C0F7FAF094F7F8C3
:10028000F094C8E1D1E0C701B6010E94AF05162F76
:10029000072FB82EA92E0E94DE059B01AC01C701D5
:1002A000B6010E943D0520E23CEB4EEB5CE40E946F
:1002B00095060E94AF059F938F937F936F93AF92A4
:1002C000BF920F931F93DF93CF938EE291E09F93A2
:1002D0008F9386E891E09F938F930E9412078DB7CA
:1002E0009EB70E960FB6F8949EBF0FBE8DBF86E8E0
:1002F00091E0DF91CF911F910F91FF90EF90DF90F0
:10030000CF90BF90AF900895CF93C82F49E050E0B1
:1003100070E060E08DE791E00E9402078C2F90E092
:100320009C01220F232F221F330B232B79F121E372
:100330002093840186FF2FC021E32093830185FF52
:100340002FC021E32093820184FF2FC021E320935B
:10035000810183FF2FC021E32093800182FF2FC002
:1003600021E320937F0181FF2FC081E380937E01F1
:10037000C0FF2FC081E380937D018AE080938501D7
:10038000109286018DE791E0CF91089520E32093AC
:10039000840186FDD1CF20E32093830185FDD1CF59
:1003A00020E32093820184FDD1CF20E320938101BB
:1003B00083FDD1CF20E32093800182FDD1CF20E3C4
:1003C00020937F0181FDD1CF80E380937E01C0FD2A
:1003D000D1CF80E380937D01D0CF1F920F920FB6D3
:1003E0000F9211242F933F934F935F936F937F93BB
:1003F0008F939F93AF93BF93EF93FF938091790176
:1004000090917A01A0917B01B0917C010196A11D90
:10041000B11D8093790190937A01A0937B01B093F1
:100420007C0116BCE0917701F09178010995FF916C
:10043000EF91BF91AF919F918F917F916F915F915C
:100440004F913F912F910F900FBE0F901F901895D5
:10045000FC01908121E030E001C0220F6A95EAF7AB
:10046000922B90830895FC01408121E030E001C08F
:10047000220F6A95EAF72095242320830895FC0132
:10048000908121E030E001C0220F6A95EAF79227BF
:1004900090830895FC01508121E030E0062E01C0D8
:1004A000220F0A94EAF72095252301C0440F6A958C
:1004B000EAF7242B20830895CF93DF93C9B149E055
:1004C00050E070E060E08DE791E00E9402078C2F21
:1004D00090E09C01220F232F221F330B232B09F4C2
:1004E00067C021E32093840186FF5EC021E320934F
:1004F000830185FF55C021E32093820184FF4CC016
:1005000021E32093810183FF43C021E320938001F5
:1005100082FF3AC021E320937F0181FF31C081E354
:1005200080937E01C0FF28C081E380937D018AE033
:1005300080938501109286018091C00085FD04C0E2
:100540008091C00085FFFCCFCDE7D1E08DE791E041
:100550000E9409079E012D5731402817390708F0DE
:1005600008C08091C00085FFFCCF89918093C600B0
:10057000EDCFDF91CF91089580E380937D01D7CFB8
:1005800080E380937E01CECF20E320937F01C5CF0F
:1005900020E320938001BCCF20E320938101B3CFDF
:1005A00020E320938201AACF20E320938301A1CFEF
:1005B00020E32093840198CF1F920F920FB60F92E1
:1005C00011248F9389B1809346018F910F900FBEB4
:1005D0000F901F90189578941092C50093E0909317
:1005E000C4008EE38093C2008091C1008861809333
:1005F000C10081E08093C00016BC95BD14BC8093FF
:100600006E0078942FE530E03093780120937701E5
:10061000219A229A239A249A529880936D0180916C
:10062000680084608093680080916D00846080938E
:100630006D008AE0B82E91E3E92E20E3F22EDD244E
:10064000D394CD2C0D2D10E0000F111F000F111FA2
:100650006091790170917A0180917B0190917C0188
:10066000C6B50E94DE0525E831EB45E85AE30E9455
:1006700095062B013C016C2F70E090E080E00E9419
:10068000E0052DEB37E346E856E30E9495069B0113
:10069000AC01C301B2010E943E052B013C01209137
:1006A0004A0130914B0140914C0150914D010E9403
:1006B0003D059F7720E030E040E05FE30E94900638
:1006C00018160CF45DC18091790190917A01A09186
:1006D0007B01B0917C0186B5C09152016091790196
:1006E00070917A0180917B0190917C01D6B50E9436
:1006F000DE0525E831EB45E85AE30E9495062B011B
:100700003C016D2F70E090E080E00E94E0052DEB51
:1007100037E346E856E30E9495069B01AC01C3010E
:10072000B2010E943E05B62FA72FF82FE92F809126
:10073000460182FD16C17091530160915401909160
:10074000550180915601272F362F492F582F6B2F97
:100750007A2F8F2F9E2F0E943D059F7720914E016B
:1007600030914F0140915001509151010E949006EB
:10077000181624F110925201CC2311F17090480107
:1007800010924801711001C01EC08091C00085FF09
:10079000FCCFC2E4D1E082E491E00E9409079E010F
:1007A000225431402817390708F00DC08091C0004D
:1007B00085FFFCCF89918093C600EDCFD092520186
:1007C000D0924801712C90914701892F8725809301
:1007D000470181E0971180E080935C01C0925D0148
:1007E00095B19E7F20915B01922B95B995B1880FB1
:1007F0009D7F892B85B985B18B7F802B85B995B17C
:1008000080915E01880F880F880F977F892B85B9AB
:1008100085B120915F0190E1299F900111248F7E85
:10082000822B85B985B12091600190E2299F9001CA
:1008300011248F7D822B85B985B12091610190E4CF
:10084000299F900111248F7B822B85B980916201B1
:1008500080FD2F9A80FF2F9888B18E7F9091630141
:10086000892B88B998B180916401880F9D7F892B6D
:1008700088B998B180916501880F880F9B7F892B7B
:1008800088B998B180916601880F880F880F977F8B
:10089000892B88B988B12091670190E1299F900147
:1008A00011248F7E822B88B988B12091680190E253
:1008B000299F900111248F7D822B88B988B12091C6
:1008C000690190E4299F900111248F7B822B88B9C4
:1008D00080916A0180FD479A80FF47988BB18E7F97
:1008E00090916B01892B8BB99BB180916C01880F22
:1008F0009D7F892B8BB99BB180916D01880F880FEB
:100900009B7F892B8BB99BB180916E01880F880FDB
:10091000880F977F892B8BB98BB120916F0190E164
:10092000299F900111248F7E822B8BB98BB120914E
:10093000700190E2299F900111248F7D822B8BB949
:100940008BB12091710190E4299F900111248F7B3C
:10095000822B8BB98091720180FD5F9A80FF5F9836
:1009600077CE4B2F5A2F6F2F7E2F409353015093EA
:1009700054016093550170935601BD01CF01E3CE40
:1009800040924A0150924B0160924C0170924D018D
:10099000C9B149E050E070E060E08DE791E00E946D
:1009A0000207C7FD54C0F0928401C6FD4DC0F0920D
:1009B0008301C5FD46C0F0928201C4FD3FC0F092A4
:1009C0008101C3FD38C0F0928001C2FD31C0F092B8
:1009D0007F01C1FD2AC0F0927E01C0FD23C0F092CC
:1009E0007D01B0928501109286018091C00085FD45
:1009F00004C08091C00085FFFCCFCDE7D1E08DE73A
:100A000091E00E9409079E012D57314028173907B0
:100A100008F059CE8091C00085FFFCCF899180936A
:100A2000C600EDCFE0927D01DCCFE0927E01D5CF14
:100A3000E0927F01CECFE0928001C7CFE0928101AA
:100A4000C0CFE0928201B9CFE0928301B2CFE092B1
:100A50008401ABCF8DEC9CECACECBDE380934E01FC
:100A600090934F01A0935001B09351010895EE0F60
:100A7000FF1F0590F491E02D09945058BB27AA2739
:100A80000E9455050C9456060E94480638F00E94B4
:100A90004F0620F039F49F3F19F426F40C944506D4
:100AA0000EF4E095E7FB0C943F06E92F0E946706E1
:100AB00058F3BA17620773078407950720F079F493
:100AC000A6F50C9489060EF4E0950B2EBA2FA02DF6
:100AD0000B01B90190010C01CA01A0011124FF27EB
:100AE000591B99F0593F50F4503E68F11A16F040E6
:100AF000A22F232F342F4427585FF3CF46953795E5
:100B00002795A795F0405395C9F77EF41F16BA0BA9
:100B1000620B730B840BBAF09150A1F0FF0FBB1F57
:100B2000661F771F881FC2F70EC0BA0F621F731FA0
:100B3000841F48F4879577956795B795F7959E3FFD
:100B400008F0B0CF9395880F08F09927EE0F97958E
:100B5000879508950E941B0608F481E008950E947D
:100B60006F0688F09F5798F0B92F9927B751B0F0CA
:100B7000E1F0660F771F881F991F1AF0BA95C9F721
:100B800014C0B13091F00E948906B1E008950C9430
:100B90008906672F782F8827B85F39F0B93FCCF3E3
:100BA000869577956795B395D9F73EF4909580959E
:100BB000709561957F4F8F4F9F4F0895E89409C0BE
:100BC00097FB3EF490958095709561957F4F8F4F80
:100BD0009F4F9923A9F0F92F96E9BB279395F69596
:100BE000879577956795B795F111F8CFFAF4BB0F14
:100BF00011F460FF1BC06F5F7F4F8F4F9F4F16C078
:100C0000882311F096E911C0772321F09EE8872F01
:100C1000762F05C0662371F096E8862F70E060E0BD
:100C20002AF09A95660F771F881FDAF7880F969536
:100C3000879597F90895990F0008550FAA0BE0E8DA
:100C4000FEEF16161706E807F907C0F0121613068E
:100C5000E407F50798F0621B730B840B950B39F4CE
:100C60000A2661F0232B242B252B21F408950A2634
:100C700009F4A140A6958FEF811D811D089597F974
:100C80009F6780E870E060E008959FEF80EC089532
:100C900000240A941616170618060906089500245B
:100CA0000A9412161306140605060895092E0394D5
:100CB000000C11F4882352F0BB0F40F4BF2B11F449
:100CC00060FF04C06F5F7F4F8F4F9F4F089557FDA8
:100CD0009058440F551F59F05F3F71F04795880FAA
:100CE00097FB991F61F09F3F79F087950895121641
:100CF00013061406551FF2CF4695F1DF08C01616ED
:100D000017061806991FF1CF86957105610508949D
:100D10000895E894BB2766277727CB0197F90895B4
:100D20000E941B0608F48FEF08950E94A8060C94F9
:100D300056060E94480638F00E944F0620F0952380
:100D400011F00C943F060C94450611240C948A066D
:100D50000E94670670F3959FC1F3950F50E0551FF1
:100D6000629FF001729FBB27F00DB11D639FAA2700
:100D7000F00DB11DAA1F649F6627B00DA11D661F4F
:100D8000829F2227B00DA11D621F739FB00DA11D70
:100D9000621F839FA00D611D221F749F3327A00D2A
:100DA000611D231F849F600D211D822F762F6A2FC6
:100DB00011249F5750409AF0F1F088234AF0EE0F2B
:100DC000FF1FBB1F661F771F881F91505040A9F758
:100DD0009E3F510580F00C943F060C948A065F3FBD
:100DE000E4F3983ED4F3869577956795B795F79594
:100DF000E7959F5FC1F7FE2B880F911D969587950C
:100E000097F90895DC0101C06D9341505040E0F71F
:100E10000895FC0101900020E9F7809590958E0FD0
:100E20009F1F0895AEE0B0E0E8E1F7E00C94C1093F
:100E30000D891E8986E08C831A8309838FEF9FE7D3
:100E40009E838D83AE01475E5F4F6F89788DCE01A3
:100E500001960E9435072F813885020F131FF80174
:100E600010822E96E4E00C94DD09ABE0B0E0EBE3F9
:100E7000F7E00C94B3097C013B018A01FC01178265
:100E80001682838181FFC8C1CE0101965C01F70102
:100E90009381F30193FD859193FF81913F01882315
:100EA00009F453C1853239F493FD859193FF819103
:100EB0003F01853229F4B70190E00E942509E7CF70
:100EC000912C212C312CFFE1F31538F08B3211F1EC
:100ED00090F4803209F1833229F137FC3CC020EDD7
:100EE000280F2A3050F536FE20C08AE0989E200D4B
:100EF0001124922E06C08D3291F0803371F76894E0
:100F000030F8F30193FD859193FF81913F018111A9
:100F1000DACF21C0689431F8689432F8F2CF68943F
:100F200033F8EFCF689434F8ECCFEAE02E9E200D32
:100F30001124222E689435F8E4CF8E3229F436FC41
:100F400004C1689436F8DDCF8C3619F4689437F80C
:100F5000D8CF8836B1F2982F9F7D95549330E0F02A
:100F60008336A1F18337C1F1833509F063C02801CD
:100F7000F2E04F0E511CF801C080D180692D70E065
:100F800036FC02C06FEF7FEFC6010E940F094C01D3
:100F9000689437F882010AC00C5F1F4FFFE3F983A2
:100FA00088248394912C6501E89437F833FE2DC092
:100FB000522C8114910471F5552009F468CFB701C2
:100FC00080E290E00E9425095A94F6CFF8018081D2
:100FD00089830E5F1F4FE4CF2801F2E04F0E511CB2
:100FE000F801C080D180692D70E036FC02C06FEF3F
:100FF0007FEFC6010E941A094C018201D5CFB701CB
:1010000080E290E00E9425092A942814190409F02E
:10101000B0F7CECFF60137FC859137FE81916F0195
:10102000B70190E00E94250951105A94F1E08F1AFF
:101030009108BFCF843619F0893609F077C0F801DE
:1010400037FE6BC060817181828193810C5F1F4F7D
:10105000F32DFF763F2E97FF09C0909580957095F0
:1010600061957F4F8F4F9F4F689437F82AE030E0AB
:10107000A5010E945509C82ECA188C2C432C36FE97
:101080000CC0E89440F8C91440F434FE05C032FCAA
:1010900003C0F32DFE7E4F2E892C44FE95C0FE0129
:1010A000EC0DF11D8081803309F087C0242D297E4D
:1010B000422E842D8870582E43FC95C040FE8FC070
:1010C0009C2C821418F42C0C922C981844FE91C07D
:1010D000B70180E390E00E94250942FE09C088E73D
:1010E00090E041FE02C088E590E0B7010E9425092A
:1010F000C91408F48AC0CA94D12C9FEFC91AD90A1E
:10110000CA0CDB1CF60182916F01B70190E00E94CE
:101110002509AC14BD04B1F74FCF60817181072E52
:10112000000C880B990B0E5F1F4F92CFD32CE894C5
:10113000D4F82AE030E0853739F1232D297FD22EEB
:101140008F3601F148F48835A9F0F701868197813F
:101150002B96E2E10C94CF09803749F08837A9F744
:10116000D4FE02C06894D2F820E130E00DC068944B
:10117000D4F8F6CF34FE03C0822F8660D82E20E14B
:1011800032E002C028E030E0F801D7FE0FC06081F5
:101190007181828193810C5F1F4FA5010E945509C7
:1011A000C82ECA183D2CE89437F867CF608171814A
:1011B00090E080E00E5F1F4FF0CF42FC02C08394AE
:1011C00078CF8394839475CF842D867809F471CF7A
:1011D000F6CFB70180E290E00E9425098394821443
:1011E000C0F3512C73CF522C5818821408F46ECFD0
:1011F000F8CF842D867809F47BCF8BE241FE80E224
:1012000047FC8DE2B70190E071CFB70180E390E039
:101210000E9425099A946CCF8FEF9FEF99CFFC0124
:101220000590615070400110D8F7809590958E0F11
:101230009F1F0895FC016150704001900110D8F784
:10124000809590958E0F9F1F08950F931F93CF93B6
:10125000DF93182F092FEB018B8181FD09C01FEF50
:101260000FEF812F902FDF91CF911F910F91089554
:1012700082FF14C02E813F818C819D812817390700
:101280003CF4E881F981CF0101969983888310832A
:101290008E819F8101969F838E83E3CFE885F985B8
:1012A000812F0995892BA1F3DACFFA01AA272830DB
:1012B00051F1203181F1E8946F936E7F6E5F7F4F23
:1012C0008F4F9F4FAF4FB1E03ED0B4E03CD0670F9F
:1012D000781F891F9A1FA11D680F791F8A1F911DF2
:1012E000A11D6A0F711D811D911DA11D20D009F442
:1012F00068943F912AE0269F11243019305D319384
:10130000DEF6CF010895462F4770405D4193B3E06C
:101310000FD0C9F7F6CF462F4F70405D4A3318F013
:10132000495D31FD4052419302D0A9F7EACFB4E0C4
:10133000A6959795879577956795BA95C9F700977C
:101340006105710508959B01AC010A2E069457951D
:10135000479537952795BA95C9F7620F731F841F74
:10136000951FA01D08952F923F924F925F926F920A
:101370007F928F929F92AF92BF92CF92DF92EF9225
:10138000FF920F931F93CF93DF93CDB7DEB7CA1BA6
:10139000DB0B0FB6F894DEBF0FBECDBF09942A88D1
:1013A000398848885F846E847D848C849B84AA8479
:1013B000B984C884DF80EE80FD800C811B81AA8106
:1013C000B981CE0FD11D0FB6F894DEBF0FBECDBFD1
:0813D000ED010895F894FFCF30
:1013D80056616C75653A20256C690A0056616C7512
:1013E800653A20256C750A002D0056616C75653AC2
:1013F800202573256C752E2530346C750A005661CE
:101408006C75653A202573256C752E2530386C75FA
:061418000A004F4E000027
:00000001FF
