:100000000C9435000C945D000C945D000C945D0024
:100010000C945D000C94CA020C945D000C945D007D
:100020000C945D000C945D000C945D000C945D00DC
:100030000C945D000C945D000C945D000C945D00CC
:100040000C94F8010C945D000C945D000C945D0020
:100050000C945D000C945D000C945D000C945D00AC
:100060000C945D000C945D00140511241FBECFEFAD
:10007000D8E0DEBFCDBF11E0A0E0B1E0ECEEF3E1EF
:1000800002C005900D92A634B107D9F722E0A6E48C
:10009000B1E001C01D92A630B207E1F710E0C5E360
:1000A000D0E004C02197FE010E942105C433D1078E
:1000B000C9F70E94D0020C94F4090C940000089532
:1000C000CF93DF9300D000D0CDB7DEB769837A83BA
:1000D0008B839C8340E250E060E070E086EE91E02C
:1000E0000E94EC068C818F939B819F938A818F93D2
:1000F00099819F9380E091E09F938F9386EE91E0AA
:100100009F938F930E94FC060FB6F894DEBF0FBE3C
:10011000CDBF86EE91E00F900F900F900F90DF9182
:10012000CF910895CF93DF9300D000D0CDB7DEB745
:1001300069837A838B839C8340E250E060E070E0C7
:1001400086EC91E00E94EC068C818F939B819F93BB
:100150008A818F9399819F938CE091E09F938F93F5
:1001600086EC91E09F938F930E94FC060FB6F89463
:10017000DEBF0FBECDBF86EC91E00F900F900F90C9
:100180000F90DF91CF910895CF93DF93CDB7DEB776
:100190002A970FB6F894DEBF0FBECDBFAB01BC01EE
:1001A00049835A838B837C8340E250E060E070E0B7
:1001B00086EA91E00E94EC0640E050E09A016981F5
:1001C0007A818B819C810E94940587FD4AC08BE0D7
:1001D00091E089879A8769817A818B819C810E94CD
:1001E00099056D837E838F8398870E94C8059B0144
:1001F000AC0169817A818B819C810E94270520E076
:1002000030E44CE156E40E947F060E9499059F93DA
:100210008F937F936F9398859F93AF81AF93BE81A8
:10022000BF938D818F939A859F93A985AF938AE120
:1002300091E09F938F9386EA91E09F938F930E9422
:10024000FC060FB6F894DEBF0FBECDBF86EA91E084
:100250002A960FB6F894DEBF0FBECDBFDF91CF91C7
:10026000089589819A81AB81BC81B05889839A8332
:10027000AB83BC83A8E1B1E0A987BA87ACCFCF93A9
:10028000DF93CDB7DEB72A970FB6F894DEBF0FBE67
:10029000CDBFAB01BC0149835A838B837C8340E291
:1002A00050E060E070E086E891E00E94EC0640E0FB
:1002B00050E09A0169817A818B819C810E9494052A
:1002C00087FD4AC08BE091E089879A8769817A81AE
:1002D0008B819C810E9499056D837E838F83988793
:1002E0000E94C8059B01AC0169817A818B819C8148
:1002F0000E94270520E23CEB4EEB5CE40E947F0667
:100300000E9499059F938F937F936F9398859F93F6
:10031000AF81AF93BE81BF938D818F939A859F9359
:10032000A985AF938EE291E09F938F9386E891E049
:100330009F938F930E94FC060FB6F894DEBF0FBE0A
:10034000CDBF86E891E02A960FB6F894DEBF0FBEC7
:10035000CDBFDF91CF91089589819A81AB81BC8116
:10036000B05889839A83AB83BC83A8E1B1E0A987A5
:10037000BA87ACCFCF93C82F49E050E060E070E07F
:100380008DE791E00E94EC068C2F90E0880F892F7A
:10039000881F990B805D8093840180E3C6FD81E313
:1003A0008093830180E3C5FD81E38093820180E334
:1003B000C4FD81E38093810180E3C3FD81E38093E9
:1003C000800180E3C2FD81E380937F0180E3C1FD72
:1003D00081E380937E01C170C05DC0937D018AE09E
:1003E00080938501109286018DE791E0CF91089569
:1003F0001F920F920FB60F9211242F933F934F939A
:100400005F936F937F938F939F93AF93BF93EF937C
:10041000FF938091790190917A01A0917B01B09135
:100420007C010196A11DB11D8093790190937A0101
:10043000A0937B01B0937C0116BCE0917701F09111
:1004400078010995FF91EF91BF91AF919F918F91A5
:100450007F916F915F914F913F912F910F900FBEC0
:100460000F901F901895FC01808121E001C0220FA0
:100470006A95EAF7822B80830895FC01208181E050
:1004800001C0880F6A95EAF78095822380830895DA
:10049000FC01808121E001C0220F6A95EAF78227E2
:1004A00080830895FC01208181E0062E01C0880F21
:1004B0000A94EAF78095822301C0440F6A95EAF70F
:1004C000842B808308950F931F93CF93DF93C9B13B
:1004D00049E050E060E070E08DE791E00E94EC06BA
:1004E0008C2F90E0880F892F881F990B805D809357
:1004F000840180E3C6FD81E38093830180E3C5FD31
:1005000081E38093820180E3C4FD81E380938101D4
:1005100080E3C3FD81E38093800180E3C2FD81E33A
:1005200080937F0180E3C1FD81E380937E01C170F0
:10053000C05DC0937D018AE08093850110928601A1
:100540008091C00085FD04C08091C00085FFFCCF74
:100550000DE711E0C0E0D0E08DE791E00E94F306E6
:10056000C817D90708F011C08091C00085FFFCCFE3
:10057000F80181918F018093C60021968DE791E06B
:100580000E94F306C817D90778F3DF91CF911F9126
:100590000F9108958F9389B1809346018F9118959B
:1005A00000D000D000D0CDB7DEB778941092C5004F
:1005B00093E09093C4008EE38093C2008091C100C9
:1005C00088618093C10081E08093C00016BC95BD16
:1005D00014BC80936E0078942FE530E0209377016F
:1005E00030937801219A229A239A249A52988093E0
:1005F0006D018091680084608093680080916D0037
:10060000846080936D008AE0D82EFF24F394EF2C51
:10061000E90E6091790170917A0180917B0190914E
:100620007C0126B52D830E94C80525E831EB45E8FD
:100630005AE30E947F0669837A838B839C833D8182
:10064000632F70E080E090E00E94CA052DEB37E355
:1006500046E856E30E947F069B01AC0169817A81DE
:100660008B819C810E9428054B015C0120914A01ED
:1006700030914B0140914C0150914D010E94270552
:100680009F7720E030E040E05FE30E947A06181692
:100690000CF06BC080924A0190924B01A0924C01E9
:1006A000B0924D0189B1898349E050E060E070E08B
:1006B0008DE791E00E94EC06998197FB882780F9ED
:1006C000805D8093840181E3E92F96FF80E380932E
:1006D000830181E3FE2FE5FF80E38093820181E3C4
:1006E0002F2FF4FF80E38093810181E3322F23FFDA
:1006F00080E38093800181E332FF80E380937F0178
:10070000898181FF8FC181E380937E0199819170FE
:10071000905D90937D01D092850110928601809129
:10072000C00085FD04C08091C00085FFFCCF0DE7AF
:1007300011E019821A828DE791E00E94F306E981A7
:10074000FA81E817F90708F010C08091C00085FF12
:10075000FCCFF80181918F018093C60029813A81F5
:100760002F5F3F4F29833A83E6CF809179019091A3
:100770007A01A0917B01B0917C0186B5F091520184
:10078000FD836091790170917A0180917B01909154
:100790007C0126B52E830E94C80525E831EB45E88B
:1007A0005AE30E947F0669837A838B839C833E8110
:1007B000632F70E080E090E00E94CA052DEB37E3E4
:1007C00046E856E30E947F069B01AC0169817A816D
:1007D0008B819C810E9428052091460122FD13C136
:1007E000509153014091540130915501209156018F
:1007F000F901252F342F4F2F5E2F0E9427059F7759
:1008000020914E0130914F01409150015091510182
:100810000E947A06181674F1109252018D8181158A
:1008200059F1C090480110924801C11001C026C082
:100830008091C00085FFFCCF02E411E019821A828A
:1008400082E491E00E94F306E981FA81E817F90752
:1008500008F015C08091C00085FFFCCFF8018191A0
:100860008F018093C60029813A812F5F3F4F2983F2
:100870003A83E6CFF0925201F0924801C12C809168
:100880004701982F9C259093470121E08C1120E08F
:1008900020935C01F0925D0195B19E7F80915B0198
:1008A000892B85B920FD299A20FF299885B18B7F56
:1008B0008E2985B995B180915E01880F880F880FC8
:1008C000977F892B85B995B180915F018295807F53
:1008D0009F7E892B85B995B1809160018295880FA3
:1008E000807E9F7D892B85B995B18091610182952C
:1008F000880F880F807C9F7B892B85B9809162014E
:1009000080FD2F9A80FF2F9898B19E7F8091630180
:10091000892B88B998B180916401880F9D7F892BBC
:1009200088B998B180916501880F880F9B7F892BCA
:1009300088B998B180916601880F880F880F977FDA
:10094000892B88B998B1809167018295807F9F7EBD
:10095000892B88B998B1809168018295880F807E33
:100960009F7D892B88B998B1809169018295880F04
:10097000880F807C9F7B892B88B980916A0180FDDC
:10098000479A80FF47989BB19E7F80916B01892B8E
:100990008BB99BB180916C01880F9D7F892B8BB99E
:1009A0009BB180916D01880F880F9B7F892B8BB93C
:1009B0009BB180916E01880F880F880F977F892BDC
:1009C0008BB99BB180916F018295807F9F7E892B2F
:1009D0008BB99BB1809170018295880F807E9F7D3D
:1009E000892B8BB99BB1809171018295880F880FFB
:1009F000807C9F7B892B8BB98091720180FD5F9AEF
:100A000080FF5F9806CE8B019C0160935301109389
:100A100054018093550130935601562F472F382F9C
:100A2000292FE6CE80E370CE8DEC9CECACECBDE3E0
:100A300080934E0190934F01A0935001B0935101C8
:100A40000895EE0FFF1F0590F491E02D0994505882
:100A5000BB27AA270E943F050C9440060E9432063D
:100A600038F00E94390620F039F49F3F19F426F43B
:100A70000C942F060EF4E095E7FB0C942906E92F61
:100A80000E94510658F3BA17620773078407950747
:100A900020F079F4A6F50C9473060EF4E0950B2E75
:100AA000BA2FA02D0B01B90190010C01CA01A001C0
:100AB0001124FF27591B99F0593F50F4503E68F11B
:100AC0001A16F040A22F232F342F4427585FF3CF5C
:100AD000469537952795A795F0405395C9F77EF42D
:100AE0001F16BA0B620B730B840BBAF09150A1F076
:100AF000FF0FBB1F661F771F881FC2F70EC0BA0FFC
:100B0000621F731F841F48F4879577956795B79583
:100B1000F7959E3F08F0B0CF9395880F08F099277E
:100B2000EE0F9795879508950E94050608F481E0D9
:100B300008950E94590688F09F5798F0B92F992779
:100B4000B751B0F0E1F0660F771F881F991F1AF0B8
:100B5000BA95C9F714C0B13091F00E947306B1E0A4
:100B600008950C947306672F782F8827B85F39F0A3
:100B7000B93FCCF3869577956795B395D9F73EF451
:100B800090958095709561957F4F8F4F9F4F0895F9
:100B9000E89409C097FB3EF4909580957095619517
:100BA0007F4F8F4F9F4F9923A9F0F92F96E9BB27CD
:100BB0009395F695879577956795B795F111F8CF49
:100BC000FAF4BB0F11F460FF1BC06F5F7F4F8F4FB4
:100BD0009F4F16C0882311F096E911C0772321F0AA
:100BE0009EE8872F762F05C0662371F096E8862F42
:100BF00070E060E02AF09A95660F771F881FDAF799
:100C0000880F9695879597F90895990F0008550FC5
:100C1000AA0BE0E8FEEF16161706E807F907C0F082
:100C200012161306E407F50798F0621B730B840B8A
:100C3000950B39F40A2661F0232B242B252B21F464
:100C400008950A2609F4A140A6958FEF811D811D04
:100C5000089597F99F6780E870E060E008959FEF3E
:100C600080EC089500240A94161617061806090643
:100C7000089500240A941216130614060506089512
:100C8000092E0394000C11F4882352F0BB0F40F49A
:100C9000BF2B11F460FF04C06F5F7F4F8F4F9F4FDA
:100CA000089557FD9058440F551F59F05F3F71F05C
:100CB0004795880F97FB991F61F09F3F79F08795C3
:100CC0000895121613061406551FF2CF4695F1DF4C
:100CD00008C0161617061806991FF1CF86957105DC
:100CE000610508940895E894BB2766277727CB0110
:100CF00097F908950E94050608F48FEF08950E9461
:100D000092060C9440060E94320638F00E94390682
:100D100020F0952311F00C9429060C942F06112431
:100D20000C9474060E94510670F3959FC1F3950FC1
:100D300050E0551F629FF001729FBB27F00DB11D5F
:100D4000639FAA27F00DB11DAA1F649F6627B00DEF
:100D5000A11D661F829F2227B00DA11D621F739FD8
:100D6000B00DA11D621F839FA00D611D221F749FE6
:100D70003327A00D611D231F849F600D211D822F2D
:100D8000762F6A2F11249F5750409AF0F1F0882354
:100D90004AF0EE0FFF1FBB1F661F771F881F915081
:100DA0005040A9F79E3F510580F00C9429060C9401
:100DB00074065F3FE4F3983ED4F386957795679584
:100DC000B795F795E7959F5FC1F7FE2B880F911DAB
:100DD0009695879597F90895DC0101C06D93415070
:100DE0005040E0F70895FC0101900020E9F780955C
:100DF00090958E0F9F1F0895AEE0B0E0E2E0F7E01F
:100E00000C94CD0986E08C832B893C8929833A8315
:100E10008FEF9FE78D839E83AE01495E5F4F6D89A3
:100E20007E89CE0101960E942007EF81F8852B89EB
:100E30003C89E20FF31F10822E96E2E00C94E90940
:100E4000ABE0B0E0E6E2F7E00C94C0096C017B0196
:100E50008A01FC0116821782838181FFDFC13AE09B
:100E6000532EF6012381F70123FD859123FF819104
:100E70007F01811509F437C1853239F423FD95913D
:100E800023FF91917F01953229F4B60190E00E94F1
:100E90002709E7CF30E0912C612C712CF0E27F160E
:100EA00040F59B32D9F058F49032D1F09332F1F002
:100EB0009E3291F576FC17C1689476F806C09D3293
:100EC00091F09033C1F4689470F8F70123FD959187
:100ED00023FF91917F019111E1CF28C0689471F8AF
:100EE000689472F8F2CF689473F8EFCF689474F84E
:100EF000ECCF77FC1BC080ED890F8A30C8F676FEF8
:100F000005C0959C800D1124982EDFCF659C800D27
:100F10001124682E7F2AD9CF9C3619F4689477F86B
:100F2000D4CF9C3409F445C0983679F2892F8F7D4F
:100F30008554833008F43FC0933609F461C0933779
:100F400009F46BC0933509F477C0943619F09936DB
:100F500009F0A4C0F80177FE9AC061917191819166
:100F600091918F01272D2F76822E97FF04C00E942A
:100F7000B509689487F82AE030E05E014FEFA41AC3
:100F8000B40AA5010E945709782E7A1886FECFC0B0
:100F9000882D8E7F791408F0C9C084FE1DC182FCA3
:100FA00011C12EEE8222B92C882D867809F4CBC08F
:100FB0000EC131E08ACF311501F1085F1F4F8FE379
:100FC000898321E0822E912C5E012FEFA21AB20AB2
:100FD000E89477F873FC03C086149104F0F181144F
:100FE000910409F041C0611409F43BCFB60180E2DD
:100FF00090E00E9427096A94F6CF0C5F1F4FDFCF65
:10100000F801808189830E5F1F4F91E0892E912C1A
:101010005E01FFEFAF1ABF0ADBCFF801A190B190DC
:101020008F01692D70E076FC02C06FEF7FEFC50184
:101030000E941C094C01CCCFF801A190B1908F0106
:10104000692D70E076FC02C06FEF7FEFC5010E9452
:1010500011094C01689477F8BDCFB60180E290E0A9
:101060000E9427096A94B8CFF50177FC859177FE35
:1010700081915F01B60190E00E94270981E0611033
:1010800001C080E0681AF1E08F1A9108A8CF619141
:101090007191872F880F880B982F63CF9537C9F4EC
:1010A000872CE89484F82AE030E0F80187FE39C004
:1010B00061917191819191918F015E01FFEFAF1A62
:1010C000BF0AA5010E945709782E7A18E89487F87C
:1010D0005DCF872D897F882E903799F058F4983509
:1010E000A9F09F36D9F0F601868197812B96EFE023
:1010F0000C94DC099837B9F774FC05C020E130E0A6
:10110000D4CF689484F8689482F8F8CF74FE03C052
:10111000E72DE6608E2E20E132E0C7CF28E030E0F8
:10112000C4CF6191719180E090E0C6CF882EB72C3A
:1011300084FE3ACFFE01E70DF11D8081803309F076
:1011400044C049EE842283FC0EC080FE51C0972C1F
:10115000B61418F4960C9B18B62C862D8B196B14AC
:1011600008F480E0B80EB61408F044C06B1884FE92
:1011700043C0B60180E390E00E94270982FE09C0C7
:1011800088E590E081FC02C088E790E0B6010E940B
:1011900027097914E0F15E018FEFA81AB80A7A9452
:1011A00082E0882E912C8C0E9D1E870C911CF401E0
:1011B00082914F01B60190E00E9427098A149B0496
:1011C000B1F711CFB92C882EB5CF82FC02C0B394F1
:1011D000BACFB394B394B7CFB92C882EE5CEB6016D
:1011E00080E290E00E942709A394A614C0F3B5CF33
:1011F000AB2CFBCF612CBBCF882D867851F280E2DF
:1012000081FC8BE287FC8DE2B60190E0C0CFB60195
:1012100080E390E00E9427099A94BBCF8FEF9FEF65
:1012200065CFFC010590615070400110D8F78095A2
:1012300090958E0F9F1F0895FC01615070400190A2
:101240000110D8F7809590958E0F9F1F08950F93EA
:101250001F93CF93DF93182F092FEB018B8181FD13
:1012600009C00FEF1FEF812F902FDF91CF911F91BA
:101270000F91089582FF14C02E813F818C819D8142
:10128000281739073CF4E881F981CF01019688835A
:10129000998310838E819F8101968E839F83E3CFF4
:1012A000E885F985812F0995892BA1F3DACFFA0119
:1012B000AA27283051F1203181F1E8946F936E7F95
:1012C0006E5F7F4F8F4F9F4FAF4FB1E03ED0B4E086
:1012D0003CD0670F781F891F9A1FA11D680F791FC7
:1012E0008A1F911DA11D6A0F711D811D911DA11DD8
:1012F00020D009F468943F912AE0269F11243019E8
:10130000305D3193DEF6CF010895462F4770405D82
:101310004193B3E00FD0C9F7F6CF462F4F70405D31
:101320004A3318F0495D31FD4052419302D0A9F78C
:10133000EACFB4E0A6959795879577956795BA9586
:10134000C9F700976105710508959B01AC010A2E4C
:1013500006945795479537952795BA95C9F7620F23
:10136000731F841F951FA01D0895909580957095FB
:1013700061957F4F8F4F9F4F08952F923F924F92CD
:101380005F926F927F928F929F92AF92BF92CF9215
:10139000DF92EF92FF920F931F93CF93DF93CDB71E
:1013A000DEB7CA1BDB0B0FB6F894DEBF0FBECDBF96
:1013B00009942A88398848885F846E847D848C8467
:1013C0009B84AA84B984C884DF80EE80FD800C8170
:1013D0001B81AA81B981CE0FD11D0FB6F894DEBF53
:0C13E0000FBECDBFED010895F894FFCFC3
:1013EC0056616C75653A20256C690A0056616C75FE
:1013FC00653A20256C750A002D0056616C75653AAE
:10140C00202573256C752E2530346C750A005661B9
:10141C006C75653A202573256C752E2530386C75E6
:06142C000A004F4E000013
:00000001FF
