:100000000C9435000C945D000C945D000C945D0024
:100010000C945D000C94D5020C945D000C945D0072
:100020000C945D000C945D000C945D000C945D00DC
:100030000C945D000C945D000C945D000C945D00CC
:100040000C945A020C945D000C945D000C945D00BD
:100050000C945D000C945D000C945D000C945D00AC
:100060000C945D000C945D00EE0411241FBECFEFD4
:10007000D8E0DEBFCDBF11E0A0E0B1E0E0E8F3E101
:1000800002C005900D92A037B107D9F722E0A0E792
:10009000B1E001C01D92AC34B207E1F710E0C5E356
:1000A000D0E004C02197FE010E940B05C433D107A4
:1000B000C9F70E94E4020C94BE090C940000CF9290
:1000C000DF92EF92FF92CF936091BF017091C001D8
:1000D0008091C1019091C201C6B50E94B20525E888
:1000E00031EB45E85AE30E9469066B017C016C2FF5
:1000F00070E090E080E00E94B4052DEB37E346E825
:1001000056E30E9469069B01AC01C701B6010E943B
:100110001205CF91FF90EF90DF90CF900895089552
:10012000AF92BF92CF92DF92EF92FF920F931F9305
:10013000CF93DF93A82EB92E8091C00085FD05C016
:10014000E0ECF0E0808185FFFDCFEA2CFB2C0A2D4E
:100150001B2DC0ECD0E00F2EF6ECCF2ED12CF02DC5
:1001600005C0F80181918F01F60180838A2D9B2DB6
:100170000E94DD0698012E193F092817390738F427
:10018000888185FDEECF888185FFFDCFEACFDF91A5
:10019000CF911F910F91FF90EF90DF90CF90BF9084
:1001A000AF9008950F931F93CF93DF93C62FD72F50
:1001B000182F092F40E250E070E060E08CE292E0FE
:1001C0000E94D6060F931F93DF93CF9380E091E0B8
:1001D0009F938F938CE292E09F938F930E94E60609
:1001E0008DB79EB708960FB6F8949EBF0FBE8DBF11
:1001F0008CE292E0DF91CF911F910F9108950F93C0
:100200001F93CF93DF93C62FD72F182F092F40E2CC
:1002100050E070E060E08CE092E00E94D6060F9320
:100220001F93DF93CF938CE091E09F938F938CE0AB
:1002300092E09F938F930E94E6068DB79EB7089633
:100240000FB6F8949EBF0FBE8DBF8CE092E0DF9199
:10025000CF911F910F910895AF92BF92CF92DF92ED
:10026000EF92FF920F931F93CF93DF936B017C016B
:1002700040E250E070E060E08CEE91E00E94D60633
:1002800020E030E0A901C701B6010E947E05882365
:100290000CF457C020E030E0A901C701B6010E946C
:1002A0007E050F2EFDE4AF2EF1E0BF2EF02D88234A
:1002B0000CF44DC00F2EFDE4AF2EF1E0BF2EF02D5B
:1002C000C701B6010E948305C62FD72F182F092F0B
:1002D0000E94B2059B01AC01C701B6010E94110545
:1002E00020E030E44CE156E40E9469060E94830558
:1002F0009F938F937F936F930F931F93DF93CF936E
:10030000BF92AF928AE191E09F938F938CEE91E040
:100310009F938F930E94E6068DB79EB70E960FB6F9
:10032000F8949EBF0FBE8DBF8CEE91E0DF91CF9110
:100330001F910F91FF90EF90DF90CF90BF90AF9003
:1003400008950F2EF8E1AF2EF1E0BF2EF02DF7FA51
:10035000F094F7F8F094B4CFAF92BF92CF92DF92BF
:10036000EF92FF920F931F93CF93DF936B017C016A
:1003700040E250E070E060E08CEC91E00E94D60634
:1003800020E030E0A901C701B6010E947E05882364
:100390000CF457C020E030E0A901C701B6010E946B
:1003A0007E050F2EFDE4AF2EF1E0BF2EF02D882349
:1003B0000CF44DC00F2EFDE4AF2EF1E0BF2EF02D5A
:1003C000C701B6010E948305C62FD72F182F092F0A
:1003D0000E94B2059B01AC01C701B6010E94110544
:1003E00020E23CEB4EEB5CE40E9469060E94830530
:1003F0009F938F937F936F930F931F93DF93CF936D
:10040000BF92AF928EE291E09F938F938CEC91E03C
:100410009F938F930E94E6068DB79EB70E960FB6F8
:10042000F8949EBF0FBE8DBF8CEC91E0DF91CF9111
:100430001F910F91FF90EF90DF90CF90BF90AF9002
:1004400008950F2EF8E1AF2EF1E0BF2EF02DF7FA50
:10045000F094F7F8F094B4CFCF93DF93C82F49E02E
:1004600050E070E060E083EC91E00E94D606E3EC9F
:10047000F1E027E030E0D0E070E361E307C077838C
:100480002150310931972F3F320759F0AE01022E2A
:1004900002C0559547950A94E2F740FFF0CF678375
:1004A000EFCFE3ECF1E08AE080871186CF01DF91A6
:1004B000CF9108951F920F920FB60F9211242F9390
:1004C0003F934F935F936F937F938F939F93AF93DC
:1004D000BF93EF93FF938091BF019091C001A091D2
:1004E000C101B091C2010196A11DB11D8093BF0150
:1004F0009093C001A093C101B093C20116BCE091DA
:10050000BD01F091BE010995FF91EF91BF91AF91AF
:100510009F918F917F916F915F914F913F912F911B
:100520000F900FBE0F901F901895FC01908121E055
:1005300030E002C0220F331F6A95E2F7922B9083BE
:100540000895FC01408121E030E002C0220F331FFA
:100550006A95E2F72095242320830895FC01908179
:1005600021E030E002C0220F331F6A95E2F79227A4
:1005700090830895FC01508121E030E0062E02C0F6
:10058000220F331F0A94E2F72095252350E002C082
:10059000440F551F6A95E2F7242B2083089589B1F3
:1005A0000E942C020E94900008951F920F920FB695
:1005B0000F9211248F9389B1809370018F910F90C6
:1005C0000FBE0F901F90189578941092C50093E07D
:1005D0009093C4008EE38093C200E1ECF0E0808150
:1005E0008861808381E08093C00016BC95BD14BCF7
:1005F00080936E0078942FE830E03093BE01209312
:10060000BD01219A229A239A249A5298E1EAF1E0B4
:10061000828B5398838B5498848BE8E6F0E080813A
:1006200084608083EDE6F0E0808184608083808157
:10063000886080838081806180830F2EF4E9CF2ED3
:10064000F1E0DF2EF02D332433940F2EF7E8EF2E58
:10065000F1E0FF2EF02D0AE711E00F2EF1E78F2ECB
:10066000F1E09F2EF02DC1EAD1E019C14092760150
:100670005092770160927801709279010E94CF02C6
:1006800026C1712C47C1712C6FC1F80125813681BB
:10069000478150850E9411059F77532CF8012081D6
:1006A0003181428153810E94640618160CF073C197
:1006B000F8015482772011F0752C732461106DC1FC
:1006C000411070C1711073C1E3E7F1E08081962D94
:1006D00093259083682209F06FC1832D9091750155
:1006E000961509F46EC14B20932D841509F46BC146
:1006F0007220532C971509F468C150927501F401CA
:100700008081632C9711612CF4016082752C782212
:1007100009F05DC1432DA71409F45EC1B52CB422C4
:10072000232CA710212C25209B2D93259983822DE6
:1007300083258A836B826C8225B12E7F3881232B9F
:1007400025B925B1990F2D7F922B95B995B1880FB9
:10075000880F9B7F892B85B955B1862D90E09C0130
:10076000220F331F220F331F220F331F577F252BDA
:1007700025B925B182959295907F9827807F9827FB
:100780002F7E822B85B985B12D81F0E22F9F9001BC
:1007900011248F7D822B85B985B12E8190E4299F0C
:1007A000900111248F7B822B85B98F8180FD2F9A38
:1007B00080FF2F9888B18E7F9885892B88B998B152
:1007C0008985880F9D7F892B88B998B18A85880F84
:1007D000880F9B7F892B88B998B18B85880F880FEC
:1007E000880F977F892B88B988B12C85E0E12E9FEF
:1007F000900111248F7E822B88B988B12D85F0E27B
:100800002F9F900111248F7D822B88B988B12E856E
:1008100090E4299F900111248F7B822B88B98F85CA
:1008200080FD479A80FF47988BB18E7F9889892BEE
:100830008BB99BB18989880F9D7F892B8BB99BB11F
:100840008A89880F880F9B7F892B8BB99BB18B89F5
:10085000880F880F880F977F892B8BB98BB12C89D4
:10086000E0E12E9F900111248F7E822B8BB98BB1FA
:100870002D89F0E22F9F900111248F7D822B8BB95F
:100880008BB12E8990E4299F900111248F7B822BBC
:100890008BB98F8980FD5F9A80FF5F98A42E0E949C
:1008A0005F002B013C01209176013091770140914E
:1008B0007801509179010E9411059F7720E030E086
:1008C00040E05FE30E94640618160CF4CFCE0E944D
:1008D0005F00709070017094F60164800E945F0068
:1008E00072FE05C0F6016187728783879487F601DF
:1008F00021853285438554850E9411059F77732C8D
:10090000F60120813181428153810E9464061816CC
:100910000CF0B7CE7324F6017482662011F0672CB8
:1009200063240E945F00709070017094F70144800E
:100930000E945F0073FE05C0F7016583768387839D
:100940009087F70125813681478150850E941105E6
:100950009F77732CF70120813181428153810E945E
:10096000640618160CF08FCEF7017482442011F043
:10097000472C43240E945F00509070015094F8016E
:1009800074800E945F0054FE80CEF80165837683F8
:10099000878390877ACE512C8BCE82E491E00E949F
:1009A00090008ECE8EE491E00E9490008BCE8DE57B
:1009B00091E00E94900088CE8DE691E00E94900028
:1009C0008CCE80E090CE90E093CE512C96CE8DE6EA
:1009D00091E00E9490009ECE40E0A0CE8DEC9CEC79
:1009E000ACECBDE38093940190939501A0939601A4
:1009F000B09397018093870190938801A093890118
:100A0000B0938A0180937A0190937B01A0937C013B
:100A1000B0937D010895EE0FFF1F0590F491E02D36
:100A200009945058BB27AA270E9429050C942A062E
:100A30000E941C0638F00E94230620F039F49F3FE4
:100A400019F426F40C9419060EF4E095E7FB0C94C7
:100A50001306E92F0E943B0658F3BA176207730783
:100A60008407950720F079F4A6F50C945D060EF442
:100A7000E0950B2EBA2FA02D0B01B90190010C01AE
:100A8000CA01A0011124FF27591B99F0593F50F4C6
:100A9000503E68F11A16F040A22F232F342F44271E
:100AA000585FF3CF469537952795A795F040539516
:100AB000C9F77EF41F16BA0B620B730B840BBAF0E6
:100AC0009150A1F0FF0FBB1F661F771F881FC2F751
:100AD0000EC0BA0F621F731F841F48F48795779565
:100AE0006795B795F7959E3F08F0B0CF9395880F1F
:100AF00008F09927EE0F9795879508950E94EF05C6
:100B000008F481E008950E94430688F09F5798F00A
:100B1000B92F9927B751B0F0E1F0660F771F881F02
:100B2000991F1AF0BA95C9F714C0B13091F00E941C
:100B30005D06B1E008950C945D06672F782F882735
:100B4000B85F39F0B93FCCF3869577956795B39543
:100B5000D9F73EF490958095709561957F4F8F4FB2
:100B60009F4F0895E89409C097FB3EF490958095B7
:100B7000709561957F4F8F4F9F4F9923A9F0F92F63
:100B800096E9BB279395F695879577956795B795E1
:100B9000F111F8CFFAF4BB0F11F460FF1BC06F5FC7
:100BA0007F4F8F4F9F4F16C0882311F096E911C0D9
:100BB000772321F09EE8872F762F05C0662371F0FA
:100BC00096E8862F70E060E02AF09A95660F771F0E
:100BD000881FDAF7880F9695879597F90895990FEA
:100BE0000008550FAA0BE0E8FEEF16161706E807F7
:100BF000F907C0F012161306E407F50798F0621B18
:100C0000730B840B950B39F40A2661F0232B242BEC
:100C1000252B21F408950A2609F4A140A6958FEF0B
:100C2000811D811D089597F99F6780E870E060E05D
:100C300008959FEF80EC089500240A941616170675
:100C400018060906089500240A94121613061406BD
:100C500005060895092E0394000C11F4882352F020
:100C6000BB0F40F4BF2B11F460FF04C06F5F7F4FD8
:100C70008F4F9F4F089557FD9058440F551F59F0BF
:100C80005F3F71F04795880F97FB991F61F09F3F79
:100C900079F087950895121613061406551FF2CFA2
:100CA0004695F1DF08C0161617061806991FF1CFF2
:100CB00086957105610508940895E894BB27662719
:100CC0007727CB0197F908950E94EF0508F48FEF7D
:100CD00008950E947C060C942A060E941C0638F097
:100CE0000E94230620F0952311F00C9413060C9417
:100CF000190611240C945E060E943B0670F3959F22
:100D0000C1F3950F50E0551F629FF001729FBB2702
:100D1000F00DB11D639FAA27F00DB11DAA1F649F9E
:100D20006627B00DA11D661F829F2227B00DA11D51
:100D3000621F739FB00DA11D621F839FA00D611DD7
:100D4000221F749F3327A00D611D231F849F600DF8
:100D5000211D822F762F6A2F11249F5750409AF021
:100D6000F1F088234AF0EE0FFF1FBB1F661F771FAD
:100D7000881F91505040A9F79E3F510580F00C9478
:100D800013060C945E065F3FE4F3983ED4F3869519
:100D900077956795B795F795E7959F5FC1F7FE2B18
:100DA000880F911D9695879597F90895DC0101C0EC
:100DB0006D9341505040E0F70895FC0101900020F0
:100DC000E9F7809590958E0F9F1F0895AEE0B0E0F3
:100DD000ECEEF6E00C9495090D891E8986E08C8373
:100DE0001A8309838FEF9FE79E838D83AE01475E51
:100DF0005F4F6F89788DCE0101960E9409072F8180
:100E00003885020F131FF80110822E96E4E00C942F
:100E1000B109ABE0B0E0EFE0F7E00C9487097C01AA
:100E20003B018A01FC0117821682838181FFC8C1C0
:100E3000CE0101965C01F7019381F30193FD859149
:100E400093FF81913F01882309F453C1853239F41E
:100E500093FD859193FF81913F01853229F4B7017C
:100E600090E00E94F908E7CF912C212C312CFFE172
:100E7000F31538F08B3211F190F4803209F183329E
:100E800029F137FC3CC020ED280F2A3050F536FE02
:100E900020C08AE0989E200D1124922E06C08D322B
:100EA00091F0803371F7689430F8F30193FD8591E8
:100EB00093FF81913F018111DACF21C0689431F80D
:100EC000689432F8F2CF689433F8EFCF689434F82E
:100ED000ECCFEAE02E9E200D1124222E689435F8E6
:100EE000E4CF8E3229F436FC04C1689436F8DDCFA5
:100EF0008C3619F4689437F8D8CF8836B1F2982F29
:100F00009F7D95549330E0F08336A1F18337C1F192
:100F1000833509F063C02801F2E04F0E511CF8013F
:100F2000C080D180692D70E036FC02C06FEF7FEF8A
:100F3000C6010E94E3084C01689437F882010AC098
:100F40000C5F1F4FFFE3F98388248394912C650184
:100F5000E89437F833FE2DC0522C8114910471F5BA
:100F6000552009F468CFB70180E290E00E94F908AB
:100F70005A94F6CFF801808189830E5F1F4FE4CF2A
:100F80002801F2E04F0E511CF801C080D180692D7C
:100F900070E036FC02C06FEF7FEFC6010E94EE08E2
:100FA0004C018201D5CFB70180E290E00E94F908A0
:100FB0002A942814190409F0B0F7CECFF60137FCB3
:100FC000859137FE81916F01B70190E00E94F90889
:100FD00051105A94F1E08F1A9108BFCF843619F05E
:100FE000893609F077C0F80137FE6BC060817181E6
:100FF000828193810C5F1F4FF32DFF763F2E97FF69
:1010000009C090958095709561957F4F8F4F9F4F48
:10101000689437F82AE030E0A5010E942909C82E1B
:10102000CA188C2C432C36FE0CC0E89440F8C91426
:1010300040F434FE05C032FC03C0F32DFE7E4F2E7B
:10104000892C44FE95C0FE01EC0DF11D808180339A
:1010500009F087C0242D297E422E842D8870582EB9
:1010600043FC95C040FE8FC09C2C821418F42C0CBD
:10107000922C981844FE91C0B70180E390E00E9442
:10108000F90842FE09C088E790E041FE02C088E509
:1010900090E0B7010E94F908C91408F48AC0CA9404
:1010A000D12C9FEFC91AD90ACA0CDB1CF601829118
:1010B0006F01B70190E00E94F908AC14BD04B1F7CC
:1010C0004FCF60817181072E000C880B990B0E5F4A
:1010D0001F4F92CFD32CE894D4F82AE030E0853724
:1010E00039F1232D297FD22E8F3601F148F488352E
:1010F000A9F0F701868197812B96E2E10C94A30970
:10110000803749F08837A9F7D4FE02C06894D2F836
:1011100020E130E00DC06894D4F8F6CF34FE03C06F
:10112000822F8660D82E20E132E002C028E030E035
:10113000F801D7FE0FC060817181828193810C5FBD
:101140001F4FA5010E942909C82ECA183D2CE894FA
:1011500037F867CF6081718190E080E00E5F1F4FAC
:10116000F0CF42FC02C0839478CF8394839475CFF0
:10117000842D867809F471CFF6CFB70180E290E034
:101180000E94F90883948214C0F3512C73CF522C1F
:101190005818821408F46ECFF8CF842D867809F49D
:1011A0007BCF8BE241FE80E247FC8DE2B70190E00D
:1011B00071CFB70180E390E00E94F9089A946CCF58
:1011C0008FEF9FEF99CFFC010590615070400110A7
:1011D000D8F7809590958E0F9F1F0895FC01615060
:1011E000704001900110D8F7809590958E0F9F1F49
:1011F00008950F931F93CF93DF93182F092FEB01BF
:101200008B8181FD09C01FEF0FEF812F902FDF91A0
:10121000CF911F910F91089582FF14C02E813F81BD
:101220008C819D81281739073CF4E881F981CF0131
:1012300001969983888310838E819F8101969F8375
:101240008E83E3CFE885F985812F0995892BA1F35A
:10125000DACFFA01AA27283051F1203181F1E89440
:101260006F936E7F6E5F7F4F8F4F9F4FAF4FB1E099
:101270003ED0B4E03CD0670F781F891F9A1FA11D94
:10128000680F791F8A1F911DA11D6A0F711D811D95
:10129000911DA11D20D009F468943F912AE0269F5A
:1012A00011243019305D3193DEF6CF010895462FB9
:1012B0004770405D4193B3E00FD0C9F7F6CF462F9A
:1012C0004F70405D4A3318F0495D31FD4052419303
:1012D00002D0A9F7EACFB4E0A695979587957795C0
:1012E0006795BA95C9F700976105710508959B0147
:1012F000AC010A2E06945795479537952795BA95D0
:10130000C9F7620F731F841F951FA01D08952F92A8
:101310003F924F925F926F927F928F929F92AF9285
:10132000BF92CF92DF92EF92FF920F931F93CF93D2
:10133000DF93CDB7DEB7CA1BDB0B0FB6F894DEBF69
:101340000FBECDBF09942A88398848885F846E848F
:101350007D848C849B84AA84B984C884DF80EE80D9
:10136000FD800C811B81AA81B981CE0FD11D0FB6E2
:10137000F894DEBF0FBECDBFED010895F894FFCF06
:1013800056616C75653A20256C690A0056616C756A
:10139000653A20256C750A002D0056616C75653A1A
:1013A000202573256C752E2530346C750A00566126
:1013B0006C75653A202573256C752E2530386C7553
:1013C0000A0052454D4F544520494E200A004F50C7
:1013D000454E20454E4453544F50200A00434C4F35
:1013E000534520454E4453544F50200A004F4E0061
:00000001FF
