:100000000C9435000C9452000C9452000C94520045
:100010000C9452000C94FA000C9452000C94520070
:100020000C9452000C9452000C9452000C94520008
:100030000C9452000C9452000C9452000C945200F8
:100040000C9485000C9452000C9452000C945200B5
:100050000C9452000C9452000C9452000C945200D8
:100060000C9452000C945200D00211241FBECFEF0A
:10007000D8E0DEBFCDBF21E0A0E0B1E001C01D921D
:10008000AF34B207E1F710E0C5E3D0E004C0219738
:10009000FE010E94ED02C433D107C9F70E94090195
:1000A0000C9484040C940000CF92DF92EF92FF92A4
:1000B000CF9360914B0170914C0180914D019091D3
:1000C0004E01C6B50E94600325E831EB45E85AE3CE
:1000D0000E94F3036B017C016C2F70E090E080E0E4
:1000E0000E9462032DEB37E346E856E30E94F303D8
:1000F0009B01AC01C701B6010E94F402CF91FF90B1
:10010000EF90DF90CF90089508951F920F920FB651
:100110000F9211242F933F934F935F936F937F938D
:100120008F939F93AF93BF93EF93FF9380914B0176
:1001300090914C01A0914D01B0914E010196A11DED
:10014000B11D80934B0190934C01A0934D01B0934E
:100150004E0116BCE0914901F0914A010995FF91C9
:10016000EF91BF91AF919F918F917F916F915F912F
:100170004F913F912F910F900FBE0F901F901895A8
:10018000FC01908121E030E002C0220F331F6A950C
:10019000E2F7922B90830895FC01408121E030E04A
:1001A00002C0220F331F6A95E2F720952423208393
:1001B0000895FC01908121E030E002C0220F331F3E
:1001C0006A95E2F7922790830895FC01508121E01F
:1001D00030E0062E02C0220F331F0A94E2F720956A
:1001E000252350E002C0440F551F6A95E2F7242BE7
:1001F000208308951F920F920FB60F9211248F93B0
:1002000089B1809300018F910F900FBE0F901F90C6
:10021000189578941092C50093E09093C4008EE3F3
:100220008093C200E1ECF0E080818861808381E00E
:100230008093C00016BC95BD14BC80936E0078946A
:1002400024E830E030934A0120934901219A229A10
:10025000239A249A299A2A9A2B9A2C9A5298EDE258
:10026000F1E0828B5398838B5498848BE8E6F0E01E
:10027000808184608083EDE6F0E08081846080830B
:100280008081886080838081806180830F2EF0E28E
:10029000CF2EF1E0DF2EF02D772473940F2EF3E1B3
:1002A000EF2EF1E0FF2EF02D06E011E00F2EF3E02F
:1002B0008F2EF1E09F2EF02DCDE2D1E003C1612C15
:1002C00024C1212C4CC1F8012581368147815085FC
:1002D0000E94F3029F77272CF8012081318142810F
:1002E00053810E94EE0318160CF050C1F8012482CD
:1002F000662011F0622C6724F4018081952D9725EA
:1003000090835822872D90910501951509F440C1DD
:100310003A20372D831509F43DC14620972D341519
:1003200009F43AC190930501E1E0F1E02081872DC5
:10033000341180E0E1E0F1E080832923472DB216FB
:1003400009F42CC1392E3422472CB212412C4922F7
:10035000232D27252983942D97259A838B838C839E
:1003600035B13E7F5881352B35B935B1220F3D7FF0
:10037000232B25B925B1990F990F2B7F922B95B976
:1003800055B190E09C01220F331F220F331F220F23
:10039000331F577F252B25B925B182959295907FE4
:1003A0009827807F98272F7E822B85B985B12D8154
:1003B000F0E22F9F900111248F7D822B85B985B1AA
:1003C0002E8190E4299F900111248F7B822B85B987
:1003D0008F8180FD2F9A80FF2F9888B18E7F98851E
:1003E000892B88B998B18985880F9D7F892B88B919
:1003F00098B18A85880F880F9B7F892B88B998B11F
:100400008B85880F880F880F977F892B88B988B1D3
:100410002C85E0E12E9F900111248F7E822B88B9DC
:1004200088B12D85F0E22F9F900111248F7D822BC2
:1004300088B988B12E8590E4299F900111248F7B83
:10044000822B88B98F8580FD479A80FF47988BB1B2
:100450008E7F9889892B8BB99BB18989880F9D7F65
:10046000892B8BB99BB18A89880F880F9B7F892B39
:100470008BB99BB18B89880F880F880F977F892B49
:100480008BB98BB12C89E0E12E9F900111248F7ED6
:10049000822B8BB98BB12D89F0E22F9F9001112413
:1004A0008F7D822B8BB98BB12E8990E4299F90018F
:1004B00011248F7B822B8BB98F8980FD5F9A80FFFF
:1004C0005F98B42E0E945400609000016094F60181
:1004D00054800E94540062FE05C0F6016187728755
:1004E00083879487F60121853285438554850E9450
:1004F000F3029F77672CF60120813181428153817D
:100500000E94EE0318160CF0DACE6724F60164821E
:10051000552011F0562C57240E94540020900001C1
:100520002094F701A4800E94540023FE05C0F70127
:100530006583768387839087F7012581368147819C
:1005400050850E94F3029F77272CF701208131818B
:10055000428153810E94EE0318160CF0B2CEF701CF
:100560002482AA2011F0A22CA7240E9454002090DB
:1005700000012094F80164800E94540024FEA3CE60
:10058000F80165837683878390879DCE212CAECE3C
:1005900080E0BECE30E0C1CE90E0C4CE40E0D2CE0E
:1005A0008DEC9CECACECBDE3809320019093210199
:1005B000A0932201B093230180931301909314011F
:1005C000A0931501B0931601809306019093070143
:1005D000A0930801B09309010895EE0FFF1F059045
:1005E000F491E02D09945058BB27AA270E940B03D1
:1005F0000C94B4030E94A60338F00E94AD0320F0CF
:1006000039F49F3F19F426F40C94A3030EF4E095FB
:10061000E7FB0C949D03E92F0E94C50358F3BA171A
:10062000620773078407950720F079F4A6F50C9408
:10063000E7030EF4E0950B2EBA2FA02D0B01B901A4
:1006400090010C01CA01A0011124FF27591B99F048
:10065000593F50F4503E68F11A16F040A22F232F54
:10066000342F4427585FF3CF469537952795A795A4
:10067000F0405395C9F77EF41F16BA0B620B730B4B
:10068000840BBAF09150A1F0FF0FBB1F661F771FBC
:10069000881FC2F70EC0BA0F621F731F841F48F471
:1006A000879577956795B795F7959E3F08F0B0CFFA
:1006B0009395880F08F09927EE0F979587950895E1
:1006C000E89409C097FB3EF49095809570956195EC
:1006D0007F4F8F4F9F4F9923A9F0F92F96E9BB27A2
:1006E0009395F695879577956795B795F111F8CF1E
:1006F000FAF4BB0F11F460FF1BC06F5F7F4F8F4F89
:100700009F4F16C0882311F096E911C0772321F07E
:100710009EE8872F762F05C0662371F096E8862F16
:1007200070E060E02AF09A95660F771F881FDAF76D
:10073000880F9695879597F9089597F99F6780E8B0
:1007400070E060E008959FEF80EC089500240A9423
:100750001616170618060906089500240A9412169C
:100760001306140605060895092E0394000C11F4CF
:10077000882352F0BB0F40F4BF2B11F460FF04C07C
:100780006F5F7F4F8F4F9F4F089557FD9058440FD5
:10079000551F59F05F3F71F04795880F97FB991FE0
:1007A00061F09F3F79F0879508951216130614069D
:1007B000551FF2CF4695F1DF08C01616170618062A
:1007C000991FF1CF86957105610508940895E89405
:1007D000BB2766277727CB0197F908950E9460040D
:1007E00008F48FEF08950E9406040C94B4030E944D
:1007F000A60338F00E94AD0320F0952311F00C946D
:100800009D030C94A30311240C94E8030E94C503D8
:1008100070F3959FC1F3950F50E0551F629FF00153
:10082000729FBB27F00DB11D639FAA27F00DB11D6C
:10083000AA1F649F6627B00DA11D661F829F2227F5
:10084000B00DA11D621F739FB00DA11D621F839F7C
:10085000A00D611D221F749F3327A00D611D231F52
:10086000849F600D211D822F762F6A2F11249F57A0
:1008700050409AF0F1F088234AF0EE0FFF1FBB1FA3
:10088000661F771F881F91505040A9F79E3F510562
:1008900080F00C949D030C94E8035F3FE4F3983ED2
:1008A000D4F3869577956795B795F795E7959F5F0C
:1008B000C1F7FE2B880F911D9695879597F908959E
:1008C000990F0008550FAA0BE0E8FEEF1616170661
:1008D000E807F907C0F012161306E407F50798F0C9
:1008E000621B730B840B950B39F40A2661F0232BE2
:1008F000242B252B21F408950A2609F4A140A6955E
:0C0900008FEF811D811D0895F894FFCF3A
:00000001FF
